:020000040800F2
:1000000088070020694200088542000889420008EC
:100010008D4200089142000895420008000000004F
:1000200000000000000000000000000099420008ED
:100030009D42000800000000A14200082D42000877
:10004000A5420008A9420008AD420008B1420008DC
:10005000B5420008B9420008BD420008C14200088C
:10006000C5420008C9420008CD4200083B420008D2
:10007000D1420008D5420008D9420008DD420008FC
:10008000E1420008E5420008E9420008ED420008AC
:10009000F1420008F5420008F9420008FD4200085C
:1000A0000000000001430008054300080943000860
:1000B0000D430008114300081543000819430008C8
:1000C0001D43000821430008254300082943000878
:1000D0002D43000831430008354300083943000828
:1000E0003D430008414300084543000849430008D8
:1000F0004D4300082DE9F04F80460FF21C60A5B07B
:1001000017461D46D0E90023CDE9122300200491B3
:100110000D900DF1500A6FF0004900E0E719002042
:10012000ADF8020012AB4FF0FF3239460DF102007C
:1001300001F08BF80446012C04DA3878441EA441FF
:10014000E443E40FBDF8020025280CBFA4F1010B25
:10015000A346BBF1010F0EDB3E4616F8011B0498C7
:10016000C0470028049000F0D2820D98401CBBF1DB
:10017000010B0D90F1D1BDF80200252807D1002018
:100180000790089009900A900B900C9005E00028C9
:10019000C4D10D98BDE240F0010017F8011F2029DD
:1001A000F9D023290DD02B2904D02D2906D03029B0
:1001B0000AD00CE040F0020080B2EEE740F004000C
:1001C000FAE740F00800F7E740F01000F4E72A29CA
:1001D0000ED12968296051F8042B2960002A0F925A
:1001E00004D5514240F004000F9180B27F1C11E011
:1001F00000210F9109E00F99494505D001EB8103DA
:1002000002EB430130390F917F1C3A78A2F13001A3
:100210000A29F0D339782E2903D04FF0FF310E91FF
:100220001DE017F8011F2A2907D1296829607F1CC2
:1002300051F8042B29600E9211E000210E9109E083
:100240000E99494505D001EB810302EB430130399A
:100250000E917F1C3A78A2F130010A29F0D3ADF853
:1002600040000FF2BC40397801F000F808B117F8EF
:10027000010B8DF842009DF84200682802BF3978D2
:100280006829622005D06C2804BF38786C2803D117
:1002900071208DF842007F1C14A8069017F8014BBE
:1002A000B4F125002AD01C3800F0CB80001F0228B2
:1002B00040F2C780133800F0EC80093800F0C180AC
:1002C000801E00F05381401E00F02C81401E022849
:1002D00040F2B780001F00F02581401F00F08280AF
:1002E000401E00F0D680401E2CD0C01E0BD0801EB9
:1002F00000F0CF80C01E00F0CC805AE125208DF8A0
:10030000500001205EE19DF842006C2828682860BA
:1003100014D050F8046B286005960E9C002C04D570
:10032000304600F0AFFF044606E02246002130468A
:1003300000F0C4FF00B1841B089444E150F8042B82
:1003400028602FE1296829603C2451F8040B2960BA
:100350000021CDE9020114A80590DDE90201069E05
:1003600011B908B90E9AB2B10206120FA0EB02122F
:100370003032D2B2631E3A2AA8BF2732000940EABF
:10038000017009099A5508BF00281C4603D0059A38
:10039000A3199A42E8D3A0190590C4F13C010E9824
:1003A0000891814209DA401A0A904FF6EF71BDF8C0
:1003B00040000840ADF8400005E1002840F103810D
:1003C0009DF8400000F01400102840F0FC800F98C9
:1003D000079A801A0A9A801A441A012CC0F2F380F4
:1003E0000A94F0E09DF8420062281AD0682806D0EE
:1003F0006A280CD06C281CD0712808D019E0286815
:10040000286050F8041B28600D980880DBE02868FD
:10041000286050F8042B28600D98C117C2E900012C
:10042000D1E02868286050F8041B28600D980870F7
:10043000C9E02868286050F8041B28600D980860FF
:10044000C1E02868C01D20F007022A60D2E900013F
:1004500008322A60CDE90201002902D507982D2132
:100460000AE0BDF84000810702D507982B2103E080
:10047000C00705D50798202100F80A10401C0790F6
:1004800014A8079908180590214602A800F090FBCF
:1004900099E09DF842006C280DD0712818BF6A2899
:1004A00009D12868C01D20F007022A60D2E90001A6
:1004B00008322A6005E02968296051F8040B296098
:1004C0000021CDE902019DF84200682803D1DDE951
:1004D000020180B20BE0622803D1DDE90201C0B263
:1004E00005E0742818BF7A2804D1DDE90201002153
:1004F000CDE902019DF8400000072ED5DDE902019B
:10050000002908BF002828D044F02000782824D1F2
:100510000798302100F80A10401C411C079100F890
:100520000A401AE09DF84200294600F0FDF8CDE9A6
:100530000201002902DA07982D210AE0BDF84000E7
:10054000810702D507982B2103E0C00705D507983E
:10055000202100F80A10401C079014A807990818D9
:100560000590214602A800F09FFA2CE09DF8420079
:100570006C2809D0012007902868286050F8041BD7
:1005800028608DF850101EE02868286001AA50F8F5
:10059000041B2860ADF804100020ADF806004FF0F1
:1005A000FF300E9002A9404600F0F5F800280AD569
:1005B000ADE025208DF85000012007901CB18AF88D
:1005C0000140022007900F980799401A0A99401A93
:1005D0000899401A0B99401A0999401A0C99441A23
:1005E0009DF84000400710D420208DF80000002620
:1005F00009E0012300AA02A9404600F001FE0028FC
:1006000040F08580761CA642F3DB079E0DF1500B6F
:100610000AE01BF8011B0498C0470028049076D01C
:100620000D98401C0D90761E002EF2D130208DF8D2
:1006300000004FF0000B0A9E09E0012300AA02A966
:10064000404600F0DDFD002861D10BF1010BB34500
:10065000F3DB089EDDF814B00AE01BF8011B0498D8
:10066000C0470028049052D00D98401C0D90761E73
:10067000002EF2D130208DF800004FF0000B0B9EC1
:1006800009E0012300AA02A9404600F0B9FD0028B4
:100690003DD10BF1010BB345F3DB05980899099E99
:1006A00001EB000B09E01BF8011B0498C047049004
:1006B00068B30D98401C0D90761E002EF3D13020AB
:1006C0008DF800004FF0000B0C9E08E0012300AAFB
:1006D00002A9404600F094FDC8B90BF1010BB345E7
:1006E000F4DB9DF8400040077FF519AD20208DF820
:1006F0000000002600E0761CA642BFF610AD0123E4
:1007000000AA02A9404600F07BFD0028F3D04FF07C
:10071000FF3025B0BDE8F08F0000000000000000B1
:10072000686A6C747A4C0000622826D068281DD054
:100730006A2808D06C2827D0712804D0742823D0C8
:100740007A280CD020E00868C01D20F0070008605F
:10075000D0E90023083008601946104670470A683F
:100760000A6052F8040B0A60002170470A680A60A8
:1007700052F8040B0A6000B20BE00A680A6052F8F3
:10078000040B0A6040B204E00A680A6052F8040BE5
:100790000A60C11770472DE9F44F0D4694B0D5F8A3
:1007A00030B0BBF1000F804648BF6FF0004B00F047
:1007B000B1FD696B401801900FF67420D0E9002359
:1007C000CDE9022395F83800400702D4019841286A
:1007D00006D240200DF1100A01904FF0000909E007
:1007E00000F09EFD5FEA000AF7D14FF0FF3058E1BC
:1007F000ABEB040BBBF1010FC0F2CD801498018864
:1008000002AA0DF1010000F0E3FD0028044600F10A
:10081000D5801498008810B9641E00F1CF80A345DC
:10082000C0F2B980686901992218914280F0A180D4
:10083000296AC5F834904042401AA969401A696A89
:10084000401AE969401AA96AA0EB010995F8380035
:10085000400710D420208DF80000002609E0012375
:1008600000AA2946404600F0CBFC002840F0A680B4
:10087000761C4E45F3DB6E6957460BE017F8011BFB
:10088000A868C0470028A86000F09880E86A401C6B
:10089000E862761E002EF1D130208DF8000000278E
:1008A0002E6A09E0012300AA2946404600F0A8FC70
:1008B000002840F083807F1CB742F3DBAE69EF680D
:1008C0000AE017F8011BA868C0470028A86075D087
:1008D000E86A401CE862761E002EF2D130208DF8C6
:1008E000000000276E6A08E0012300AA294640465E
:1008F00000F086FC002861D17F1CB742F4DBE86879
:10090000A969EE690F180AE017F8011BA868C0472B
:100910000028A86052D0E86A401CE862761E002ECB
:10092000F2D130208DF800000027AE6A08E00123E4
:1009300000AA2946404600F063FC00283ED17F1CF7
:10094000B742F4DB95F8380040070ED520208DF82B
:100950000000002607E0012300AA2946404600F0D7
:100960004FFC58BB761C4E45F5DB4FF00009C5F82F
:100970001490224668690DF10101504400F036FDE3
:100980006869201868611498801C1490801E008883
:1009900000287FF42DAF686B6969401A296A401AF4
:1009A000A969401A696A401AE969401AA96A471A8E
:1009B00095F83800400710D400240CE04FF0FF39C0
:1009C00068E0A8682021C0470028A860F6D0E86A3F
:1009D000401CE862641CBC42F3DB6B69524629464A
:1009E000404600F00DFC0028E8D12C6A002609E002
:1009F000A8683021C0470028A860DFD0E86A401C02
:100A0000E862761CA642F3DBAB69EA6829464046F9
:100A100000F0F6FB0028D1D16C6A002609E0A86836
:100A20003021C0470028A860C8D0E86A401CE862AE
:100A3000761CA642F3DBE868A969EB690A18294627
:100A4000404600F0DDFB0028B8D1AC6A002609E082
:100A5000A8683021C0470028A860AFD0E86A401CD1
:100A6000E862761CA642F3DB95F8380040070DD506
:100A7000002409E0A8682021C0470028A8609DD074
:100A8000E86A401CE862641CBC42F3DBC5F81490C1
:100A9000C5F8349004A882451CBF504600F0E2FC23
:100AA000484615B0BDE8F08F2DE9FA4E05460A46D6
:100AB0002F696F2A08BF082405D041F0200078284C
:100AC00014BF0A2410243C26D5E90001642A18BF6B
:100AD000692A81468A4605D1002903DAD9F100093D
:100AE0006AEB4A0ABAF1000F08BFB9F1000F0CD146
:100AF000286B50B9082C36D195F83800000732D54C
:100B000030203B2687F83B002DE0E317484651464E
:100B1000224600F0E7FCA4FB0023A9EB02023032DE
:100B2000D2B2A6F1010B3A2A5E4603DB9DF80030F3
:100B3000513B9A1881465FEA010A0BF8072008BF6B
:100B4000B9F1000F03D0E868F1198842DDD3082C11
:100B500009D195F83800000705D5F05D302802D09E
:100B6000761E3020F055C6F13C00A861F119E9600D
:100B7000296B884208DA081A28624FF6EF71288F2D
:100B800008402887BDE8F38E00290ED595F8381067
:100B900001F01401102908D1696B6A69891A2A6A5F
:100BA000891A0E1A012EA8BF2E62BDE8F38E00002E
:100BB0002DE9F24F04468EB0D4E90001CDE90201DF
:100BC00004AF9DF8380040F0200BBBF1610F0AD054
:100BD000206B002848BF062004D408BFBBF1670F74
:100BE00001D1012020636168C1F30A5040F2FF7215
:100BF00090421CD1080304BF2068002809D10320BB
:100C0000A0619DF8380061381A2836D30FF234619C
:100C100008E00320A0619DF8380061381A2829D324
:100C20000FF21861E068032200F0E0FBBEE101284A
:100C300016DA204600F0CDFC012811DB002500204B
:100C4000BBF1610F20D1E168302201F8012B4A1C71
:100C5000E2609DF83820612A0CBF782258220FE00C
:100C6000626840F2FE3161F31E52451A62604FF035
:100C7000FF30E5E70FF2C051D4E70FF2C451D1E7DE
:100C80000A706169891C616110B90026002584E140
:100C9000BBF1610F40F09780206BD4E900AB0028D6
:100CA0004CBF2126461CDDE902010022002300F092
:100CB000B1FC36B23ABF8BF00040CDE902A0CDE9DD
:100CC00002AB06F101082D1F8DF810200DF1110760
:100CD00000E0C71DB8F1010F33DBDDE9020100229E
:100CE000002300F0AFFC2CD21C2102A800F0C2FCB3
:100CF000DDE9020100F046FDA8F10708B8F1010F97
:100D0000814609DB00F06AFD02460B46DDE902017F
:100D100000F07CFDCDE90201F81D072105E009F096
:100D20000F0200F8012D4FEA2919B9F1010F01DB7B
:100D3000491EF4D5491E5CBF002200F8012DF9D5EB
:100D4000C7E70DF11100391AB142B8BF0E4636B2ED
:100D500030000DF111072FD4884206DA04A941189A
:100D600049780829A8BF0F2100DA002104AA8218B7
:100D700000E0761E12F80139401E8B42F9D00F298F
:100D800004D104A941184A78521C4A70002802D59F
:100D900004AF761C2D1D36B2701E0DD4C1190A7811
:100DA0003032D2B23A2A03DB9DF838303A3B9A18F7
:100DB000401E01F80129F2D5206B002840F1ED809A
:100DC000701E2063E9E0DDE902010022002300F04B
:100DD00021FC3CBF81F00041CDE902012DB247F278
:100DE000975068434B49DFF8309190FBF1F52DB2F5
:100DF000C5F1070ABAF1010F90461CDBDDE9026775
:100E00005FEACA7007D542464B463046394600F085
:100E1000BDFD06460F464046494642464B464FEA10
:100E20006A0A00F0B3FDBAF1000F80468946E7D1A7
:100E3000CDE9026724E0CAF1000A0026374F14E02A
:100E40005FEACA7007D542464B463046394600F045
:100E50009DFD06460F464046494642464B4600F039
:100E600095FD4FEA6A0A80468946BAF1000FE7D13C
:100E7000DDE9020132463B4600F05AFECDE90201AF
:100E8000BBF1660F216BDFF898900CBF05F10A00EB
:100E900006204618142EA8BF132630208DF8100007
:100EA0000DF11107012E3DDBDDE9020100F080FCB0
:100EB00007F1080104220A23B0FBF3F303EB8307D5
:100EC000A0EB4700303001F8010C0A20B3FBF0F032
:100ED00000EB8007A3EB47033033521E01F8023DBD
:100EE000E9D1083E012E01F10807DBDBDDE9020153
:100EF00000F05EFC00F07CFC02460B46DDE90201DE
:100F000000F084FC00224B4600F040FDCDE90201D8
:100F1000CAE700BFA0860100000024400000F03FA7
:100F200084D797410DF11100381A0DF1110702E035
:100F3000401E6D1E7F1C39783029F9D0BBF1660F39
:100F400002D12DB2691C04E0BBF1650F0CBF012179
:100F50000021226B8E1836B2B042B8BF064636B2B8
:100F600031001AD4814204DAC85D3528A8BF39207F
:100F700000DA3020CA19521E00E0761E12F801393C
:100F8000491E8342F9D0392802D1C85D401CC8559A
:100F9000002902D57F1E761C6D1C2DB29DF83810DD
:100FA000009533B23A46204600F003F80FB0BDE892
:100FB000F08F2DE9F04786B006468A4690461D46DA
:100FC00000F0FFFE012D406A376B90F8009002DAC6
:100FD00001250FF274284AF02000BDF93840662838
:100FE00008BF641C12D0672876D114F1040F79DB96
:100FF000BC4277DA96F83800641C000702D4BD4280
:10100000B8BF2F4624B23F1B48BF002724B2F06868
:10101000B169012C21DA4A1C30230B54012F03DA69
:1010200096F83810090702D502F80090521CE742E2
:10103000B8BF7C4224B2E7196142AF42B26171622B
:10104000B8BF3D46B3692DB2F5612A46414618182E
:1010500000F0CCF9781BB062BBE00818A54216DAA4
:101060002A46414600F0C2F9B1696918601B012F98
:10107000B161706203DA96F83800000705D5F068B0
:1010800001F80090F069401CF061B762A1E02246CF
:10109000414600F0ABF9B06920182D1B012F03DA8F
:1010A00096F83810090703D5F16800F80190401C44
:1010B000B0612DB2AF42B8BF3D46F068B3692DB202
:1010C0002A4604EB0801181800F090F9B0692818B6
:1010D000B061781B70627CE0BAF1610F14D14FF0FF
:1010E000700A16E0BD4204DA96F83810090758BFB6
:1010F0002F467F1E48BF0027BAF1670F14BF4FF07D
:10110000450A4FF0650A04E0BAF1410F08BF4FF0FD
:10111000500AB169F06818F8013B0B544A1C012FC2
:1011200005DA96F83810090758BFB26115D502F8EC
:101130000090531C012FB3610FDB6D1E2DB2AF4227
:10114000B8BF3D462DB22A464146181800F04EF968
:10115000B0692818B061781B7062F068B16909182D
:10116000200081F800A004D42B20487001F102086F
:1011700004E02D224A7001F102086442002502AF0A
:1011800008E00A2200A800F035FE019807F8010BDC
:101190006D1C009C21B20129F3DA022D06DA4AF017
:1011A0002000652804BF302008F8010B4DB930201D
:1011B00008F8010B07E06D1E02A8285C303008F823
:1011C000010B012DF7DAF068B1690818A8EB0000EF
:1011D000F06196F8380000F0140010280DD1706905
:1011E000B1690818716A0818F1690818B16A081815
:1011F000716B8842BCBF081A306206B0BDE8F08748
:10120000F8B504460D4616461F46002004E0E86A7D
:10121000401CE8627F1E002047B116F8011BA86839
:10122000A0470028A860F2D14FF0FF30F2BD0000C7
:1012300000000000000000006E616E004E414E0094
:10124000696E6600494E46003000F8B504460D460A
:1012500016461F4600F0D6FD3B463246294620463C
:1012600001B0BDE8F04000F0E4BD00000278C9B272
:101270008A421AB11CBF10F8012FF9E718BF0020ED
:101280007047000000F10103810704D010F8011B32
:1012900089B18107FAD10268B2F10131914311F0AD
:1012A000803F04BF50F8042FF6E710F8011B11B17E
:1012B00010F8011BFBE7C01A70470000C9B2830792
:1012C00006D0521E22D310F8013B9942F7D11FE0FD
:1012D000083A13D302F1040241EA012141EA014133
:1012E00050F8043B121F21BF4B40A3F1013C2CEAF4
:1012F000030C1CF0803FF3D0C9B2001F083210F875
:10130000013B521E28BF91EA030FF8D818BF0120F5
:10131000401E704780B500F075FD012002BD000041
:1013200070B5054605F10F00C408C046C046E4008C
:10133000A54232D2082C04D2082402E0083000F082
:1013400091F82248026811000CD1011D0A6802B30D
:101350001368A34238BF111DF8D310E01D68A542E1
:101360000DD2191D0B68002BF8D11268011D00E089
:10137000191D0B6893420CD01D68A542F8D361B1CA
:101380000D682A68A2F10803A3420AD26A680A60BB
:101390000FE000F071FD0028D0D1C046C04600200B
:1013A00070BD63190B60121B6E685E600B681A607B
:1013B0002C60096800291DBF4A68002A091D002108
:1013C0000160C046C04605F1080070BD78030020EA
:1013D00070B504460D46164600F014FD3246294607
:1013E0002046BDE8704000F017BD000062B38B07D7
:1013F00008D0521E11F8013B00F8013B00F0248098
:101400008B07F6D1830740F0208000BF103A07D346
:1014100030B4B1E83810103AA0E83810F9D230BC36
:10142000530724BFB1E80810A0E8081044BF51F8E2
:10143000043B40F8043BD20724BF31F8022B20F8CC
:10144000022B44BF0B7803707047083A07D3B1E80A
:101450000810083A40F8043B40F804CBF7D2530791
:10146000E4E7000000B9704738B5A0F1080420682F
:10147000082833D310F0070F30D1C046C0461848B3
:10148000416809B18C4203D26160446017E019469B
:101490004B680BB1A342FAD30B685D18AC421BD367
:1014A000A54204D12268D2180A600C4607E04A68B7
:1014B0001AB123681B199A420ED362604C606168AE
:1014C00051B1226813198B4206D1002303600868CA
:1014D0008018206048686060C046C04631BD00008A
:1014E000780300201B4213D1094236D12AB1844629
:1014F000B0FBF2F002FB10C2704700F0D3BCFCD38B
:101500000022002370470B000200002100207047DA
:10151000904271EB030CF6D370B5B1FA81F4B3FAD3
:1015200083F52C1BA340C4F1200532FA05F63343A2
:10153000A2405FF00046E64002E05B085FEA32024C
:10154000841A71EB030524BF204629467641F4D363
:1015500002000B003000002170BD012ACFD970B508
:10156000140C20D0B1FA81F4B2FA82F5C4F120044F
:101570006419B4F12006D6D3B2405FF00044F440C1
:10158000002502E052085FEA3303C61A71EB020E2F
:1015900024BF3046714664416D41F3D302000B0015
:1015A0002000290070BD0C46B1FBF2F102FB114591
:1015B0002D0445EA1045B5FBF2F402FB145580B248
:1015C00040EA0545B5FBF2F002FB105240EA044048
:1015D00070BD30B4436803F0004201211B031B0BB4
:1015E000436004BF0368002B08D10DE00368DD0FE2
:1015F00045EA440444605B000360491E4468E3021A
:10160000F4D523031B0B436043681A43426008462A
:1016100030BC70474FF4001C1CEB410F94BF1CEB17
:10162000430F09E041EA030C50EA4C0C52EA0C0C5F
:1016300003D2994208BF9042704714BF8B42824246
:10164000704700004FF4001C1CEB410F94BF1CEBD3
:10165000430F09E041EA030C50EA4C0C52EA0C0C2F
:1016600003D28B4208BF8242704714BF9942904216
:101670007047000070B504460D466068C0F30A501C
:1016800040F2FF71884207D16068000304BF206800
:10169000002817D0022070BD20B92046FFF799FF1F
:1016A000012868DA012D0FDB40F2FF71091A8D4223
:1016B0000AD36068002847BF002030490020304925
:1016C000C4E90001012070BD4142A942616806DA07
:1016D0006FF31E51401941EA0050606042E0401E25
:1016E00063684519012205F1350062F31F5335285F
:1016F00001F00041636003D361600020206070BD91
:10170000002215F11F0F04DA226823600020203523
:101710006060684214D0521E25689241C0F12003D7
:10172000D2439D4045EAD272256825FA00F66568E5
:1017300005FA03F333432360636823FA00F5656019
:1017400060680843B2F1004F606003D80DD1207883
:10175000C0070AD52068401C2060206828B960684E
:10176000401C60604FF0FF3070BD6068884204BF6D
:1017700020680028F6D1002070BD00BF0000F0FFF7
:101780000000F07FF446400D40EAC120490006D237
:1017900000F014F8004248BF6FF00040604700F0CE
:1017A0000DF84FF0004188428CBF08464042604728
:1017B000400D40EAC120490080F00D8040F000401B
:1017C000490DA1F58061491C05D4D1F11F0154BF19
:1017D000C840C01770474FF000007047010040F14B
:1017E0000980F446404200F005F851F0004160479E
:1017F000010000BF09D0B0FA80F18840C91CC1F5D2
:101800008461090501EBD02140057047F0B44FF029
:10181000004591EA030F44BF6B4000F045BB00BF99
:10182000841A71EB030604D26E40001BB1411219F9
:1018300073414FF4001C1CEB410F34BF7CEB43069B
:1018400084E00C0DA4EB1356362E7DDC012E43DC18
:1018500045EAC32343EA525312BFD20292025B0805
:10186000240545EAC12141EA5051D2EBC0209941FB
:1018700025D407D1B0FA80F610FA06F164D0002022
:10188000203608E0B1FA81F6B140C6F1200220FA14
:1018900002F21143B0404FEAF474B4EB465434F012
:1018A00001064FEA74040AD8D6F50016760D04F046
:1018B0000044F04061FA06F25040F1404840C00A4E
:1018C00040EA415021F0004128BF5FEA500550F145
:1018D000000044EBD12137E045EAC323DB0A45EAA7
:1018E000C121C90AB6F120050EDD42EA0242120CFE
:1018F000C5F1200603FA06F6EB4042EA06056D4202
:10190000984161F100010DE062FA06F5F2405540A0
:1019100063FA06FC82EA0C02F3405A406D429041A1
:1019200061EB030111F4801F05D1641E620502D032
:101930006D004041494121F48011430875F1004395
:1019400050F1000041EB0451F0BC70471CEB410F1B
:1019500015D223F0004352EA43060BD04FEA4C0C59
:10196000BCEB410F04D80C0D661E342EB7DDEBE73F
:10197000801A994150EA410608BF0021E4E708BFF8
:101980001CEB430F28BF6FF00001DDE7B0B581EA23
:10199000030C0CF0004C40F2FF7515EA11541DBF0A
:1019A00015EA1357AC42AF4239E0E41923EA455334
:1019B00043F48013C90241F0004141EA505EC7027E
:1019C0001100A7FB020200284FF00000EEFB0120EF
:1019D0004FF00001E3FB072118BF42F0010240185D
:1019E00000214941E3FB0E01A4F580640F0302D2FC
:1019F00052004041494154F101046CDD470872F145
:101A0000004250F1000051EB0451A1F580115CBF80
:101A100041EA0C01B0BD4CEA05510020B0BD05EA19
:101A20001357AC4214BFAF4241E050EA410E1CBF15
:101A300052EA430E02E061460020B0BD24423C441D
:101A40001BD15FEA070EF6D0090302BF0146002052
:101A5000AEF1140EB1FA81F7AEEB070401FA07FEFE
:101A60000C37C7F1200100FA07F7C8404EEA000E14
:101A700023EA455343F48013A2E733F00043B3FA5B
:101A800083F704BFB2FA82FE77440B3FE41BB7F141
:101A9000200E2FBF02FA0EF3BB40C7F1200E22FA30
:101AA0000EFE38BF43EA0E03BA40641C82E750EAD8
:101AB000410E14BF52EA430E6FF000014FF40017BD
:101AC00017EB430F8ABF194617EB410FB5E74CEAF6
:101AD00005510020B0BDD4F10104B4F120070FDAA4
:101AE000C4F12007520828BF42F0010210FA07F59E
:101AF00001FA07F7E1BF2A43E0403843E1400FE035
:101B0000352C98DCC7F1200452EA400220FA07F293
:101B100018BF42F0010231FA07F0A1400A43002148
:101B200072F1004250F1000051EB0C01B0BD000019
:101B30002DE9F04140F2FF7581EA030C0CF0004CF6
:101B400015EA11541DBF15EA1357AC42AF42E9E044
:101B5000BC41C1F31301C3F31303801A994143F449
:101B6000801304D2641E4000494180185941C902C3
:101B700041EA5051B1FBF3F603FB1611A2FB0675C7
:101B8000D7EBC020A94102D2761E80185941C90264
:101B900041EA5051B1FBF3FE03FB1E11A2FB0E758F
:101BA000D7EBC020A94103D2AEF1010E80185941F4
:101BB000890241EA9051760546EA8E2EB1FBF3F692
:101BC00003FB1611A2FB0675D7EB8020A94102D2B8
:101BD000761E80185941C90241EA50514EEA060E5C
:101BE000B1FBF3F603FB1611A2FB0675D7EBC02081
:101BF000A94102D2761E80185941C90241EA5051CA
:101C0000B1FBF3F703FB1711A2FB0735D3EBC020A1
:101C1000A94167F100070CBF004247F0010766F3D6
:101C2000D5274FEA1E31B80814F5806414DDBD07CE
:101C300075F1004250EB0E5051EB045111F5801F2D
:101C40005CBF41EA0C01BDE8F0814CF07F6141F0DE
:101C5000E0410020BDE8F081BD076D0840EA0E506C
:101C600041F48011D4F10104B4F120060ADAC4F180
:101C700020060200E04001FA06F3E1401843B240BA
:101C800015430EE0342C14DCC6F1200445EA40056F
:101C90006D0820FA06F2154321FA06F0A1400D4323
:101CA000002175F1004250F1000051EB0C01BDE83C
:101CB000F08100205FEA0C01BDE8F081CFB99218F5
:101CC0005B41B3FA83F704BFB2FA82F6BF190B3F48
:101CD000B7F120062FBF02FA06F3BB40C7F120067A
:101CE00022FA06F638BF3343BA401CB1E419641E29
:101CF0002FE77F4231F00041B1FA81F404BFB0FA1E
:101D000080F6A4190B3CB4F120062FBF00FA06F1AF
:101D1000A140C4F1200620FA06F638BF3143A040A6
:101D20003C1B16E7AC421ABF05EA1357AF4214E05A
:101D300050EA41061CBF52EA4306BFE750EA41079A
:101D4000304661461CBF41EA0551BDE8F08152EAC8
:101D5000430C08BFC143BDE8F08100204FF40016DA
:101D600016EB410F98BF16EB430F08BF16EB410F60
:101D700024BFC14305E016EB430F0CBF61464CEA9C
:101D80000551BDE8F081000080B5134800F0F6F879
:101D90000FF24C020FF244010160426241600FF207
:101DA0004402826381600FF24402C16001614161BB
:101DB00081618162C16201634163C2630164416404
:101DC00001BD10B5044800F0D9F80446206808B9F0
:101DD000FFF7DAFF204610BD0000002000000000E1
:101DE0002E00000066616C736500000074727565FA
:101DF0000000000091FBF2F303FB1211C0E9003177
:101E00007047000080B5DFF80C0000F0B7F880697B
:101E100002BD00009000002030B430B90FF248003D
:101E2000D0E90045C2E900451BE00170012030BC4B
:101E3000704730B431B90FF23800D0E90045C3E93A
:101E400000450EE01AB930BC6FF00100704708B1D0
:101E50000A7802800978481E804130BCC043C00F18
:101E60007047002030BC70470000000000000000F8
:101E700000000000000000000749086808B10020C9
:101E800070470648C008C00008600549C908C90075
:101E9000091A0160704700BF840300208F070020EB
:101EA0008809002070470000841A71EB030603D2F2
:101EB000001BB141121973414FF4001C1CEB410F80
:101EC00034BF7CEB430443E00C0DA4EB1356352EDA
:101ED00050DC45EAC323DB0A45EAC121C912B6F149
:101EE00020050DDD63FA05F6EB4086EA0305124294
:101EF00018BF45F00105C01851F100010CD213E0E4
:101F000062FA06F5F2405540F3415A40B340F340BF
:101F10005A408018594107D349085FEA30005FEA08
:101F2000350528BF45F0010501F58011420875F11E
:101F3000004250F1000041EB0451F0BC4FF4001C92
:101F40001CEB410F38BF70470020090D0905704791
:101F50001CEB410F10D252EA43060BD0BCEB410FF1
:101F600005D80C0DAB43661E342EB5DD02E0AB4345
:101F700080185941F0BC7047F0BC704770470000B2
:101F8000F8B50446DFF8E4572078C00776D5A8688E
:101F900000F00C00082807D0A86800F00C000C28FE
:101FA0000CD1A868C00309D52868C0F340400028B8
:101FB00064D06068002861D10120F2BD286820F457
:101FC00080302860286820F48020286000F014FC0D
:101FD00006462868C0F34040002807D000F00CFCFB
:101FE000801B41F289318842F3D3F0E16068012817
:101FF00004D1286840F4803028601CE0002808D113
:10200000286820F480302860286820F48020286028
:1020100011E00528286807D140F48020286028684E
:1020200040F48030286006E020F480302860286882
:1020300020F480202860606800280FD000F0DCFBCE
:1020400006462868C0F34040002817D100F0D4FBB2
:10205000801B41F289318842F3D3B8E100F0CCFB18
:1020600006462868C0F34040002807D000F0C4FBB3
:10207000801B41F289318842F3D3A8E120788007A0
:102080001BD5A86800F00C00042807D0A86800F051
:102090000C000C283AD1A868C00337D42868C0F3D4
:1020A0004000002802D0E068012885D1686820F44B
:1020B000F850216940EA012068602078C00667D5A1
:1020C000A86810F00C0F7BD12868C0F340200028CE
:1020D00003D0A06900283FF46FAF206A696801F45B
:1020E000604181423FD200F006FB00287FF464AFDC
:1020F000686820F46040216A0843686068680002EC
:10210000000AE16940EA016068603EE0DFF860765D
:10211000E068002817D00120386000F06DFB06460B
:102120002868C0F34000002805D100F065FB801B43
:102130006528F5D34BE1686820F4F850216940EA3E
:1021400001206860B9E70020386000F055FB0646C2
:102150002868C0F340000028AFD000F04DFB801B82
:102160006528F5D333E1696821F46041084368606C
:1021700068680002000AE16940EA01606860206A5C
:1021800000F0B9FA00287FF417AF002000F01DFB23
:102190002078000757D5DFF8DC056169002942D0B7
:1021A0000121016000F028FB0646686BC0F3400087
:1021B000002848D100F020FB801B6528F5D306E1FC
:1021C000DFF8AC75A06900281DD00120386200F04E
:1021D00013FB06462868C0F34020002805D100F014
:1021E0000BFB801B6528F5D3F1E0686820F46040A4
:1021F000216A0843686068680002000AE16940EAF1
:1022000001606860C4E70020386200F0F5FA064615
:102210002868C0F340200028BAD000F0EDFA801BF7
:102220006528F5D3D3E00021016000F0E5FA064609
:10223000686BC0F34000002805D000F0DDFA801B79
:102240006528F5D3C3E0207840077AD5686A40F066
:1022500080506862686A00F0805000900098DFF853
:102260001875386840F48070386000F0C5FA06468A
:102270003868C00505D400F0BFFA801B6528F7D385
:10228000A5E0686B20F480706863686B20F4806060
:10229000686300F0B1FA0646686BC0F3402000287E
:1022A00007D000F0A9FA801B41F289318842F3D3AC
:1022B0008DE0A068012804D1686B40F480706863E9
:1022C0001CE0002808D1686B20F480706863686B9C
:1022D00020F48060686311E00528686B07D140F442
:1022E00080606863686B40F48070686306E020F487
:1022F00080706863686B20F480606863A068002861
:102300000FD000F079FA0646686BC0F34020002831
:1023100017D100F071FA801B41F289318842F3D362
:1023200055E000F069FA0646686BC0F340200028CB
:1023300007D000F061FA801B41F289318842F3D363
:1023400045E0606A002844D0A96801F00C010C291E
:102350003FF432AEDFF81874022829D10020386625
:1023600000F04AFA06462868C0F34060002805D00D
:1023700000F042FA801B6528F5D328E0A86820F415
:102380007D00A16A0843E16A0843216B0843A86005
:102390000120386600F030FA06462868C0F3406035
:1023A000002816D100F028FA801B6528F5D30EE02E
:1023B0000020386600F020FA06462868C0F3406026
:1023C000002806D000F018FA801B6528F5D30320FA
:1023D000F2BD0020F2BD2DE9F04104460E46DFF8C3
:1023E0009C73386800F00100B04280F08880012EB4
:1023F00003D1386840F0040038603868400856EA75
:1024000040003860386800F00100B04240F0FB80C6
:10241000DFF858532078800705D5A86820F0F00031
:10242000A1680843A8602078C00740F1EE8060688A
:10243000022805D12968C1F34041002915D1E2E005
:10244000032805D12968C1F3406100290DD1DAE0E4
:102450000128296804D1C1F34001002905D1D2E047
:10246000C1F34021002900F0CE80A968890850EA14
:102470008100A86000F0C0F98046606802280ED193
:10248000A86800F00C00082800F0BF8000F0B4F944
:10249000A0EB080041F289318842F1D3A1E0032882
:1024A0000ED1A86800F00C000C2800F0AE8000F0FF
:1024B000A3F9A0EB080041F289318842F1D390E002
:1024C00001280ED1A86800F00C00042800F09D80BF
:1024D00000F092F9A0EB080041F289318842F1D373
:1024E0007FE0A86810F00C0F00F08F8000F084F9F6
:1024F000A0EB080041F289318842F2D371E02078E4
:10250000800707D5DFF86452A86820F0F000A168C2
:102510000843A8602078C00765D56068DFF84C5292
:10252000022805D12968C1F34041002914D16AE08D
:10253000032805D12968C1F3406100290CD162E06C
:102540000128296804D1C1F34001002904D15AE0CF
:10255000C1F34021002956D0A968890850EA8100BA
:10256000A86000F049F98046606802280DD1A8688B
:1025700000F00C00082836D000F03EF9A0EB08006F
:1025800041F289318842F2D32BE003280DD1A868AB
:1025900000F00C000C2826D000F02EF9A0EB08006B
:1025A00041F289318842F2D31BE001280DD1A8689D
:1025B00000F00C00042816D000F01EF9A0EB080073
:1025C00041F289318842F2D30BE0A86810F00C0F79
:1025D00009D000F011F9A0EB080041F289318842DE
:1025E000F3D303202AE0012E03D1386840F0040021
:1025F00038603868400856EA40003860386800F0B3
:102600000100B04201D0012018E02078400706D533
:10261000564DA86820F4E060E1680843A86020787F
:10262000000707D5514DA86820F46050216940EAA1
:10263000C100A860002000F0C8F80020BDE8F081CB
:102640005048416801F00C02042A04D0082A04D042
:102650000C2A04D01AE04C4870474C4870470FF2DF
:102660004812C1F383439A5C0FF23813C1F38151CE
:10267000C95C4068C00304D544485043B0FBF1F046
:10268000704741485043B0FBF1F070470068C0F319
:1026900042300121401C01FA00F0C003704780B5B0
:1026A000FFF7CEFF3A490FF2EC02354B1B68C3F33C
:1026B00003139A5C0346D3400B60086802BD80B5E3
:1026C000FFF7EDFF01460FF2CC002D4A1268C2F36E
:1026D0000222125C0846D04002BD80B5FFF7DFFF42
:1026E00001460FF2B000264A1268C2F3C222125C01
:1026F0000846D04002BD70B582B005460024204E89
:10270000306810F0F00F1BD1F069C00002D500F066
:1027100085F80EE0F06940F08050F061F06900F05B
:1027200080500090009800F079F8F16921F0805114
:10273000F161B0F5C05F03D1B5F5404F00D1012480
:102740000E48012C03D1016841F0040101600168C9
:10275000490854EA41010160006800F00100A0420C
:1027600001D0012076BD002076BD00000038024077
:10277000000047428006474200700040003C024093
:1027800008380240043802400024F40000127A00A5
:102790003C010020000000000102030401020304C8
:1027A0000607080901020304030406080C10182098
:1027B0003000000080B5032000F08FF8002000F00A
:1027C00004F800F0BBF8002002BD10B50446FFF786
:1027D00066FF4FF47A71B0FBF1F000F08FF8002241
:1027E00021464FF0FF3000F079F8002010BD0A4874
:1027F0000168491C0160704707480068704711B5BF
:1028000081B0FFF7F9FF0446FFF7F6FF001B0199BF
:102810008842F9D313BD00008003002002480068FD
:1028200000F4C05070470000007000403A490A6848
:102830004FF6FF031A4000F0070042EA0020374A33
:1028400010430860704734480068C0F302207047A6
:10285000012100F01F029140314A400942F8201046
:1028600070470901002806D52E4A00F00F00801895
:1028700000F8041C70472C4A8154704710B400F0D3
:102880000700C0F10703052B00D30423041D072C08
:1028900001D2002000E0C01E012404FA03F35B1EF5
:1028A0001940814004FA00F0401E1040084310BC5B
:1028B000704710B5401EB0F1807F01D3012010BDDC
:1028C0001A4C60600F214FF0FF30FFF7CAFF002065
:1028D000A06007202060002010BDA7E770B5044667
:1028E0000D461646FFF7AFFF32462946FFF7C6FFF3
:1028F00001462046BDE87040B3E7A9E7D9E70B4998
:102900000428086803D140F004000860704720F0F4
:1029100004000860704700000CED00E00000FA05BC
:1029200000E100E018ED00E000E400E010E000E06D
:1029300080B500F001F801BD7047000080B50F4878
:10294000416841F000414160416801F0004100915F
:102950000099016841F001010160006800F0010088
:10296000009000980320FFF7B8FF002211464FF0B7
:10297000FF30BDE80840FFF7B1BF00BF203802407C
:10298000F8B504460025002C01D10120F2BD04F168
:1029900048067068002810D12846B0603070DFF813
:1029A000C403016841F001010160006800F001000A
:1029B00000900098204600F056FA7068C00600F1BA
:1029C0008680706820F4885040F002007060DFF864
:1029D0009803016821F44031626811430160606A24
:1029E000E16862691143E26B41EA4221226A1143C4
:1029F00041EA4001626B102A02D0A36B1A431143D3
:102A00002268126852062AD4A26911432269B2F5DB
:102A1000807F01D0012A02D14FF4807200E02A4663
:102A2000A368E7693B431A43E36A012B10D10028EE
:102A300006D1206B401E400340F40060024307E0D3
:102A4000706840F020007060B06840F00100B06035
:102A500020684368DFF814733B401A4342602068E3
:102A60008268DFF80C331A400A4382602069B0F5AF
:102A7000807F02D14FF4807000E028462268002851
:102A8000106B20F0F87005D0A36A5B1E40EA03507B
:102A9000106300E0106320688068DFF8D8221040DF
:102AA000884208D12846B060706820F0020040F0EB
:102AB000010070600CE0706820F0020040F010002F
:102AC0007060B06840F00100B060012500E00125B1
:102AD0002846F2BD2DE9F04104460D46164604F1A4
:102AE000480898F80000012801D1022059E001208F
:102AF00088F80000204600F0FDF8070050D1D8F813
:102B00000400DFF87412084040F48070C8F8040034
:102B100020684068400507D5D8F8040020F400502C
:102B200040F48050C8F80400D8F80400C00406D56A
:102B3000D8F8080020F00600C8F8080002E00020DD
:102B4000C8F80800002088F800000FF23920616CF6
:102B500088620FF29520616CC8620FF29920616C57
:102B600008636FF00200216808602068416841F046
:102B7000806141602068816841F4807181603346E2
:102B80002A46206800F15801606C00F0D3F92068F3
:102B9000816811F0405F03D1816841F0804181601C
:102BA0003846BDE8F0817047704778B40022009243
:102BB00090F84820012A01D1022099E0012280F8F2
:102BC00048204D680A6803681F24072D0AD26D1E2D
:102BD00005EB85051E6CAC4026EA0404AA4022439E
:102BE0001A6430E00D2D0AD2ED1F05EB8505DE6B72
:102BF000AC4026EA0404AA402243DA6323E0132D02
:102C00000AD20D3D05EB85059E6BAC4026EA040417
:102C1000AA4022439A6316E0192D0AD2133D05EB10
:102C200085055E6BAC4026EA0404AA4022435A6341
:102C300009E0193D05EB85051E6BAC4026EA04044E
:102C4000AA4022431A630A680A2A0CD202EB420302
:102C50000268546907259D40AC438D6805FA03F36B
:102C60002343536120E0142A0DD20A3A02EB4203B7
:102C70000268146907259D40AC438D6805FA03F38B
:102C80002343136110E01B2A0DD2143A02EB4203D6
:102C90000268D46807259D40AC438D6805FA03F3AC
:102CA0002343D36000E000BF0A68102A01D0112A34
:102CB0001AD12D4A13681B0216D4136843F400037B
:102CC0001360096810290FD12C4909682C4AB1FBFF
:102CD000F2F101EB81025100009102E00099491EDE
:102CE000009100990029F9D1002180F84810084688
:102CF00072BC704738B50446002000902068016817
:102D000049062CD4816841F0010181601B480068AC
:102D10001B49B0FBF1F000EB4000009002E000988E
:102D2000401E009000980028F9D1FFF765FD054688
:102D300020680068400612D4FFF75EFD401B0328A0
:102D4000F6D304F14800416841F010014160816808
:102D500041F00101816000210170012032BD00209D
:102D600032BD00002038024004270140FF16FCFC61
:102D70008DF1FFC0FEFF80BFFEF9FFFF3C01002088
:102D800040420F0080B5416ACA6C12F0500F25D145
:102D9000C86C40F40070C8640868826812F0405F34
:102DA00018D14A6A002A15D1026B12F0F87F02D0BE
:102DB000826852050ED4426822F020024260C86C3C
:102DC00020F48070C864C86CC00403D4C86C40F0A0
:102DD0000100C864084600F0A9FA01BD496C096BFE
:102DE000BDE804400847000080B5406AFFF7DBFEFD
:102DF00001BD000080B5406AC16C41F04001C16472
:102E0000016D41F004010165FFF7CEFE01BD000038
:102E100010B584B02D4C2E4820604FF48030606097
:102E20000020A060E06020614FF4806060610020BD
:102E3000A061E061206201206062A0620020E06287
:102E4000102060630020A0630120E0632046FFF7AC
:102E500097FD0120009001900020029000A92046DB
:102E6000FFF7A3FE1FBD30B587B0044620681849A0
:102E7000884229D11748016841F400710160006857
:102E800000F400700090009802200190032002904E
:102E90000020039001A9104800F05AFA0F4D104885
:102EA000286000206860A8608020E8604FF480708F
:102EB00028614FF4806068610020A861E8612846BD
:102EC00000F010F865646C6207B030BD9801002016
:102ED000002401402038024000000240F802002097
:102EE00008600240002801D10120704790F82110AD
:102EF000002902D1002180F82010022180F8211041
:102F000001680A686FF30D1243681A4383681A4315
:102F1000C3681A4303691A4343691A4383691A430E
:102F2000C3691A430A6000214163012180F821101E
:102F30000020704738B5044694F82000012801D1DC
:102F4000022032BD012084F82000022084F82100F4
:102F5000206805686D086D000560204600F058F98E
:102F60002068016841F0020101602068016841F0B9
:102F7000040101602068016841F0080101602068D7
:102F8000016841F001010160002032BD70B50446C6
:102F90009E4D296820680246964EB24201D1082211
:102FA0001EE0954B9A4201D1802219E0934B9A4240
:102FB00002D14FF4006213E0914B9A4202D14FF4D8
:102FC00000420DE08F4B9A4202D14FF4002207E0FD
:102FD0008D4B9A4202D14FF4000201E04FF00062A3
:102FE00011423CD00168090739D5016821F0080178
:102FF00001602068B04201D108201EE07E4988426D
:1030000001D1802019E07D49884202D14FF400604F
:1030100013E07B49884202D14FF400400DE079492A
:10302000884202D14FF4002007E07749884202D15C
:103030004FF4000001E04FF00060686004F12800E8
:10304000C16841F00101C160042184F82110002110
:1030500084F820108168080001D02046884729683C
:1030600020680246B24201D104221EE0624B9A421D
:1030700001D1402219E0614B9A4202D14FF48062A3
:1030800013E05F4B9A4202D14FF480420DE05D4B5A
:103090009A4202D14FF4802207E05B4B9A4202D160
:1030A0004FF4800201E04FF08062114238D0016895
:1030B000490735D50168890603D4016821F0040168
:1030C00001602068B04201D104201EE04A498842D4
:1030D00001D1402019E04949884202D14FF4806073
:1030E00013E04749884202D14FF480400DE0454942
:1030F000884202D14FF4802007E04349884202D140
:103100004FF4800001E04FF080606860112084F887
:10311000210004F128004168080001D020468847BA
:10312000296820680246B24201D102221EE0324BD9
:103130009A4201D1202219E0304B9A4202D14FF439
:10314000007213E02E4B9A4202D14FF400520DE070
:103150002C4B9A4202D14FF4003207E02A4B9A429C
:1031600002D14FF4001201E04FF0007211423FD043
:10317000016889073CD50168890603D4016821F0FC
:10318000020101602068B04201D102201EE01A490C
:10319000884201D1202019E01849884202D14FF419
:1031A000007013E01649884202D14FF400500DE040
:1031B0001449884202D14FF4003007E01249884296
:1031C00002D14FF4001001E04FF00070686004F18C
:1031D0002800C168C160012184F82110002184F811
:1031E00020100168080003D02046BDE87040084761
:1031F00070BD0000086002401C6002403060024068
:1032000044600240586002406C600240006002402E
:1032100010B40468636003684468102C03D19A609A
:103220000068C16002E099600068C26010BC70472D
:1032300010B5FFF7BFFA00F01FF800F055F900F0E5
:1032400097F9FFF7E5FD00F0ABF900F0E7F900F0C2
:1032500025FA00F063FA00F072FA304C0A22214697
:103260002F48FFF737FC6420FFF7C9FA21880FF2D7
:10327000C40000F0BFFAF6E700B595B02948016830
:1032800041F080510160006800F08050009000988B
:103290002548016821F4C05141F4006101600B2010
:1032A0000890012009900B9010200C9001200D90A7
:1032B000022011904FF4803012904FF48010139040
:1032C0004FF40000149008A8FEF75AFE0120039066
:1032D000032004900020059006900790012103A888
:1032E000FFF779F8012001904FF40030029001A817
:1032F00000F092FAFFF7D3F94FF47A71B0FBF1F0D6
:10330000FFF7FCFA0420FFF7FAFA002211464FF00B
:10331000FF30FFF7E3FA15B000BD000030030020D6
:103320009801002024380240007000400FF2100085
:1033300000F060BA4144433A25640D0A00000000E1
:1033400041444320434F4E562043500D0A00000095
:10335000F8B4002225E04FF0050C0CFA06F63E43C7
:1033600045F82460584C2668DD432E404F68FF0323
:1033700000D51E43266066682E404F68BF0300D507
:103380001E436660A6682E404F68FF0200D51E43AC
:10339000A660E66835404E68B60200D51D43E5607C
:1033A000521C0B681C46D44000F08B8001249440D2
:1033B0002340F5D04D68022D01D0122D12D1D50831
:1033C00000EB8506356A02F00707BF004FF00F0CCF
:1033D0000CFA07FC25EA0C05D1F810C00CFA07F727
:1033E0003D433562056856000327B740FF433D4023
:1033F00091F804C00CF0030C0CFA06FC4CEA05052D
:1034000005604D68012D05D0022D03D0112D01D08E
:10341000122D11D185683D40D1F80CC00CFA06FC84
:103420004CEA05058560456825EA04044D68C5F346
:10343000001595402C434460C56807EA05048D6873
:10344000B5402C43C4604C68E400A9D51F4C2568E6
:1034500045F001052560246804F001040094009CF7
:1034600094081B4D55F8247002F00306B6004FF087
:103470000F0C0CFA06FC27EA0C07DFF858C0604571
:1034800002D14FF0000C68E7DFF84CC0604502D174
:103490004FF0010C61E7DFF844C0604502D14FF006
:1034A000020C5AE7DFF838C0604502D14FF0030C38
:1034B00053E7DFF830C060457FF44DAF4FF0040CA8
:1034C0004BE7F1BC70470000000401402038024087
:1034D00008000140000002400004024000080240D1
:1034E000000C02400010024000B587B01D48016882
:1034F00041F004010160016801F0040100910099AC
:10350000016841F020010160016801F02001009193
:103510000099016841F001010160016801F00101B9
:1035200000910099016841F002010160006800F01B
:10353000020000900098012001900020029003906A
:1035400001A90948FFF704FF022001900120029021
:1035500003900020049001A90448FFF7F9FE07B08A
:1035600000BD00BF1C3802400000024000040240C1
:1035700080B50A48016841F080710160006800F080
:10358000807000900098002211460B20FFF7A6F9EA
:103590000B20BDE80240FFF7B0B900BF1C38024065
:1035A00019481A4901601A49416000218160C160CF
:1035B0004FF480410161002141618161C16101627B
:1035C00000F08CB900681149884200D0704700B5FE
:1035D00087B0C020019012200290012003900320A8
:1035E00004900420059001A90A48FFF7B1FE0A489B
:1035F000016841F400110160006800F400100090BF
:10360000009807B000BD0000BC020020005400403C
:10361000A0860100000402402438024010B586B0A4
:103620001B4C1C482060002060607F20A060FF20B1
:10363000E060002020616061A061204600F0EEF9AA
:103640000020019004900590012201A9204600F07D
:1036500031FA01208DF800008DF801008DF802008C
:1036600000208DF80300012200A9204600F091FA05
:1036700004220021204600F040FB06B010BD006887
:103680000449884202D101200349086070470000C4
:103690005803002000280040D80647421B481C4918
:1036A00001604FF48271416000218160C16001615D
:1036B00041614FF4007181610021C1610162416289
:1036C00081620A21C16200F06FBB00681049884224
:1036D00000D0704700B587B00E48016841F48051B2
:1036E0000160006800F4805000900098E020019094
:1036F00002200290002003900320049005200590F2
:1037000001A90548FFF724FE07B000BD40010020D5
:103710000030014020380240000002402F4830496C
:1037200001604FF4E131416000218160C1600161BD
:103730000C21416100218161C16100F071BB294808
:10374000294901604FF4E131416000218160C1608D
:1037500001610C21416100218161C16100F060BB08
:1037600000B587B000681E49884219D11F4801681A
:1037700041F480410160006800F4804000900098AE
:103780004FF4C060019002200290012003900320BA
:1037900004900720059001A91548FFF7D9FD1AE00C
:1037A0001149884217D11148416841F40031416004
:1037B000406800F40030009000980C200190022036
:1037C000029001200390032004900720059001A996
:1037D0000748FFF7BDFD07B000BD00003C02002018
:1037E000003801407C0200200044004020380240A4
:1037F000000002400EB400B582B003A90091024659
:1038000000AB0121034878440A30FCF773FC06BC86
:103810005DF810FB310A0000F8B504462078C007B7
:1038200054D52B4D686A40F080506862686A00F099
:10383000805000900098274E306840F480703060CF
:10384000FEF7DAFF07463068C00505D4FEF7D4FF5F
:10385000C01B6528F7D324E0686B00F44030616832
:1038600001F44031884231D02078C0072ED5686BF2
:1038700020F44030184901220A6000220A6068637F
:10388000800510D5FEF7B8FF0746686BC0F34020EF
:10389000002808D1FEF7B0FFC01B41F289318842F1
:1038A000F3D30320F2BD606800F44031B1F5403F2E
:1038B00006D1296821F0C04100F0C04008432860CB
:1038C000686B616801F44031084368630020F2BD11
:1038D0000038024000700040DC064742F8B50400A2
:1038E0000FD004F134056878002804D10020287036
:1038F0002046FFF767FEFEF7E2FEDFF80C11884274
:1039000001D20120F2BD0221697021680A685208C3
:1039100052000A60DFF8F410B0FBF1F321684A6846
:10392000920953EA82124A602268166ADFF8E010B0
:1039300067688F4201D25B1C07E04FF496777B43A8
:103940004FF47A77B3FBF7F35B1CB60953EA86139F
:1039500013622268D36966688E4208D27100B0FB98
:10396000F1F00105090D042922D2042020E0A1680C
:10397000002904D106EB4607B0FBF7F705E019274D
:103980007743B0FBF7F747F480473F0501D10120AB
:103990000EE0002904D106EB4601B0FBF1F005E092
:1039A00019217143B0FBF1F040F4804040F4004035
:1039B000DFF8601019400843D0612068016821F0E9
:1039C000C001E2691143226A1143016020688168E5
:1039D000DFF84420114022691143E26811438160FD
:1039E0002068C168090AA26963691A4352EA012181
:1039F000C1602068016841F0010101600020686039
:103A0000012068700020F2BD80841E0040420F003B
:103A1000A18601000030FFFF007CFFFF38B50400E5
:103A200001D1012032BD607F002804D10020207721
:103A30002046FFF724FE02206077CA2021684862F2
:103A4000532021684862FF25204600F00DF9002828
:103A5000206804D0456204206077012032BD81686F
:103A60007E4A1140816020688168626823691A4338
:103A700063691A4311438160E06821680861206826
:103A80000169A26841EA024101612068C16821F030
:103A90008001C1602068016C21F4802101642068EC
:103AA000016CA269114301642068456201206077BE
:103AB000002032BDF8B504460D46207F012801D113
:103AC0000220F2BD01202077022060772068002AC2
:103AD000806816D1400601D40020E870287800F0F4
:103AE000DDF80646687800F0D9F80746A87800F0B7
:103AF000D5F8390241EA06410843E97840EA01462F
:103B000011E0400603D5287800F0D3F801E000204A
:103B1000E87028786978090241EA0040A9780843EA
:103B2000E97840EA0146CA202168486253202168AA
:103B30004862204600F098F8002819D148483040E3
:103B4000216808602068816821F4802181602068F4
:103B50008168EA682B691A43114381602068C16853
:103B600021F08001C160204600F0ACF8002808D0A8
:103B7000FF20216848620420607700202077012020
:103B8000F2BDFF2021684862012060770020207785
:103B9000F2BDF8B504460D46207F012801D1022070
:103BA000F2BD0120207702206077002A06D16878D4
:103BB000C10603D500F0EF000A306870002A12D168
:103BC000E87800F06BF80646687800F067F807467A
:103BD000A87800F063F8390241EA064108432978E1
:103BE00040EA41350FE0687800F063F8A87800F00B
:103BF00060F8E8786978090241EA0040A97808434A
:103C0000297840EA4135CA2021684862532021685A
:103C10004862204600F028F800280DD111482840BD
:103C2000216848602068C16821F08001C160204699
:103C300000F048F8002808D0FF20216848620420DE
:103C40006077002020770120F2BDFF2021684862C4
:103C50000120607700202077F2BD0000BFFF8FFFBA
:103C60007F7F7F003FFFFF0038B504462068C168B2
:103C7000490611D44FF0FF31C160FEF7BDFD054686
:103C80002068C068400607D4FEF7B6FD401BB0F5BB
:103C90007A7FF5D9032032BD002032BD002101E03A
:103CA000491C0A38C0B20A28FADA40EA0110C0B248
:103CB0007047010901EB810200F00F0000EB4200A8
:103CC000C0B2704738B5044620688168890612D4AE
:103CD000C16821F0A001C160FEF78EFD0546206895
:103CE000C068800607D4FEF787FD401BB0F57A7FD9
:103CF000F5D9032032BD002032BDF8B504460D468B
:103D00001646207F012801D10220F2BD0120207734
:103D100002206077CA2021684862532021684862E7
:103D20002068806840050DD5FEF766FD07462068CF
:103D3000C068400706D5FEF75FFDC01BB0F57A7F6F
:103D4000F5D911E02068816821F480618160FEF777
:103D500053FD07462068C16849070ED4FEF74CFDA5
:103D6000C01BB0F57A7FF5D9FF2021684862032097
:103D70006077002020770320F2BD8168C908C90060
:103D800081602068816831438160206845612068D6
:103D9000816841F480618160FF20216848620120D0
:103DA000607700202077F2BD38B5040001D10120F2
:103DB00032BD04F150056878002804D10020287035
:103DC0002046FFF782FC022068702068016821F01D
:103DD000400101606068A1680843E1680843216907
:103DE000084361690843A16901F400710843E1696E
:103DF0000843216A0843A16A084321680860A06952
:103E0000000C00F00400616A084321684860E06A21
:103E1000216808610020686001206870002032BDC0
:103E200038B5050001D1012032BD05F138046078B4
:103E3000002804D1002020702846FFF791FC0220C2
:103E400060702868C16821F40051C160284600F004
:103E500015F82868016921F49041016128684169D9
:103E600021F02A0141612868C16841F40051C16014
:103E70000020606001206070002032BD2DE9F0411B
:103E800004462068016921F44051E2681143016150
:103E90002068C1685F4A1140A2681143226911433A
:103EA00062691143E2691143C1602068416921F4EC
:103EB0004071A26911434161206864251926564961
:103EC000E269B2F5004F51D1884227D1FEF705FCD7
:103ED0008046FEF702FC0746FEF7FFFB61684A00DA
:103EE00006FB08F1B1FBF2F12B46B1FBF3F106FB47
:103EF00007F3B3FBF2F37043B0FBF2F02A46B0FBDA
:103F0000F2F005FB103000013230B0FBF2F000F0AF
:103F10000F0040EA01102168886078E0FEF7CFFBCF
:103F20008046FEF7CCFB0746FEF7C9FB61684A00F6
:103F300006FB08F1B1FBF2F12B46B1FBF3F106FBF6
:103F400007F3B3FBF2F37043B0FBF2F02A46B0FB89
:103F5000F2F005FB103000013230B0FBF2F000F05F
:103F60000F0040EA01102168886050E0884227D1A4
:103F7000FEF7B3FB8046FEF7B0FB0746FEF7ADFB4E
:103F800061688A0006FB08F1B1FBF2F12B46B1FB38
:103F9000F3F106FB07F3B3FBF2F37043B0FBF2F06F
:103FA0002A46B0FBF2F005FB103000013230B0FBC6
:103FB000F2F000F00F0040EA01102168886026E06E
:103FC000FEF77DFB8046FEF77AFB0746FEF777FBA0
:103FD00061688A0006FB08F1B1FBF2F12B46B1FBE8
:103FE000F3F106FB07F3B3FBF2F37043B0FBF2F01F
:103FF0002A46B0FBF2F005FB103000013230B0FB76
:10400000F2F000F00F0040EA011021688860BDE87E
:10401000F0810000F369FFFF00380140816807E08C
:1040200002681168536889185B18C360083202601F
:10403000C2689142F4D04A1C8260087870472DE92A
:10404000FF4D00F10801009100270268520801EBC2
:10405000C2010191B846002102910391016849080B
:1040600000EBC101406800F0010501F108044008BF
:1040700004EBC00630E000A8FFF7D0FF4FFA80FA4B
:104080000AE0009801680818009902904968081829
:104090000390009808300090029803998842F0D06D
:1040A00010F801BB029047450CD1B44208BF00F0A4
:1040B0001DF8276805B14F44606800EB0708083415
:1040C0004745F2D0BAF1000F07F801BB0AD51AF143
:1040D000010AE8D14745CED1B442CCD1304604B034
:1040E000BDE8F08DBAF1010AD6D5F3E7012000F062
:1040F00001B8000080B5C046C046024A1100182031
:10410000ABBEFBE7260002000D48016841F4807158
:10411000016081680B4A1140816001680A4A1140C0
:104120000160016821F480210160816821F47D0132
:1041300081600021C1604FF0006004490860704751
:10414000003802400CC0FF88FEFFFEEE08ED00E0E4
:1041500019E050F8041BCB0744BFA9F1010359181B
:10416000121F0023042A41F8043BF9D25FEA827C43
:104170000B4604D54FF0000CA1F800C09B1CD107E2
:1041800044BF0021197050F8042B002AE1D1704778
:1041900010B5074979441831064C7C44163404E0C4
:1041A0000A68081D511888470146A142F8D110BD80
:1041B000080000003000000099FFFFFF48020000E7
:1041C000400100200000000077FEFFFF0200000019
:1041D000020000007C01000033000000000000200D
:1041E0004001000000F00BF8002801D0FFF7D0FFDD
:1041F0000020C046C046FFF71BF800F002F801207F
:10420000704700F001B8000007463846FFF772FF1C
:10421000FBE70000044909680A685206FAD502461D
:10422000D2B24A60704700003C02002080B5FEF721
:10423000DEFABDE80140FEF77BBB0148FEF7A6BEF3
:10424000F802002038B504460D46284600F006F86E
:10425000A84218BF0024204632BD00000149FFF7E4
:10426000D9BF00BFFC00002001488047014800473B
:104270000941000879420008C046C046C046C04611
:10428000FFF7B0FFFFF7FEBFFFF7FEBFFFF7FEBF70
:10429000FFF7FEBFFFF7FEBFFFF7FEBFFFF7FEBF52
:1042A000FFF7FEBFFFF7FEBFFFF7FEBFFFF7FEBF42
:1042B000FFF7FEBFFFF7FEBFFFF7FEBFFFF7FEBF32
:1042C000FFF7FEBFFFF7FEBFFFF7FEBFFFF7FEBF22
:1042D000FFF7FEBFFFF7FEBFFFF7FEBFFFF7FEBF12
:1042E000FFF7FEBFFFF7FEBFFFF7FEBFFFF7FEBF02
:1042F000FFF7FEBFFFF7FEBFFFF7FEBFFFF7FEBFF2
:10430000FFF7FEBFFFF7FEBFFFF7FEBFFFF7FEBFE1
:10431000FFF7FEBFFFF7FEBFFFF7FEBFFFF7FEBFD1
:10432000FFF7FEBFFFF7FEBFFFF7FEBFFFF7FEBFC1
:10433000FFF7FEBFFFF7FEBFFFF7FEBFFFF7FEBFB1
:10434000FFF7FEBFFFF7FEBFFFF7FEBFFFF7FEBFA1
:10435000E400F8FFDC00FAFF8100D1001F02040135
:1043600001EC0100203C020020EC010020EC0100E7
:1043700020EC0100203901002020010020DF000294
:0343800048E80109
:040000050800427934
:00000001FF
