:020000040800F2
:10000000E0020020090100081101000813010008A6
:100010001501000817010008190100080000000080
:100020000000000000000000000000001B010008AC
:100030001D010008000000001F0100080D16000847
:100040002301000823010008230100082301000800
:1000500023010008230100085101000823010008C2
:1000600023010008230100082301000823010008E0
:1000700023010008230100082301000823010008D0
:1000800023010008230100082301000823010008C0
:1000900023010008230100082301000823010008B0
:1000A00000000000230100082301000823010008CC
:1000B0002301000823010008230100082301000890
:1000C0002301000823010008230100082301000880
:1000D000230100086D19000823010008230100080E
:1000E0002301000823010008230100082301000860
:1000F00023010008DFF80CD000F018F80048004792
:1001000099190008E0020020064880470648004789
:10011000FEE7FEE7FEE7FEE7FEE7FEE7FEE7FEE7B7
:10012000FEE7FEE7A5160008F5000008064C074D9F
:1001300006E0E06840F0010394E8070098471034B7
:10014000AC42F6D3FFF7DAFFEC1900080C1A0008EE
:10015000012000F00DB831B500F0E6F8044600F0DB
:10016000E3F80099001B8842F9D338BD70470000BE
:10017000044910B50A68024202D00860FFF7F6FF92
:1001800010BD0000140401402DE9F84FDFF864B100
:1001900000234FF0010C4FF0030A4FF00F090BF151
:1001A000040EA0E00CFA03F6324072D04C68022C28
:1001B00001D0122C0ED1DC0800EB8408D8F82040C6
:1001C0005D07EF0E09FA07F5AC430D69BD40254305
:1001D000C8F8205007685D0091F804800AFA05F419
:1001E00008F00308A74308FA05F848EA0708C0F82A
:1001F00000804F68012F05D0022F03D0112F01D0AE
:10020000122F11D18768D1F80C80A74308FA05F89E
:1002100048EA0708C0F808804768B7430E79C6F374
:1002200000169E403E434660C668A6438C68AC40BC
:100230003443C4604C68E40054D52F4C256845F025
:1002400001052560246823F0030504F001040094EF
:100250002A4C2544AF689C07240F09FA04F6B743DB
:10026000274EB04201D1002615E0264EB04201D102
:10027000012610E0244EB04201D102260BE0234EAD
:10028000B04201D1032606E0214EB04202D104263D
:1002900001E027E00526A6403E43AE60DBF80040C3
:1002A0005D464E689443F60300D514432C60DEF897
:1002B000004075464E689443B60300D514432C6045
:1002C0000C4D08352C684E689443F60200D5144353
:1002D0002C60084D0C352C684E689443B60200D54E
:1002E00014432C605B1C0A6832FA03F47FF45AAFA3
:1002F000BDE8F88F000401402038024000000140B2
:10030000000002400004024000080240000C0240CD
:100310000010024042694A40426170470AB181615F
:1003200070470904FBE700000148006870470000BF
:100330000000002070B504000DD094F835000025B1
:1003400020B984F83450204600F094F800F0EAFA1E
:100350004549884201D2012070BD022184F8351040
:1003600021680A6822F001020A6040492268B0FB55
:10037000F1F1536823F03F030B4353603C4A636839
:10038000934206D94FF4967359434FF47A73B1FBF5
:10039000F3F12368491C1E6A26F03F0631431962B7
:1003A000616891420BD84900B0FBF1F2C2F30B0235
:1003B000042A01D2042019E0B0FBF1F016E0A36892
:1003C000F3B301EBC10202EB0112B0FBF2F242F413
:1003D0008042120540D0A3B301EBC10202EB011130
:1003E000B0FBF1F040F4804040F400402168CA695D
:1003F0004CF6FF739A431043C861D4E907010843E0
:1004000021680A6822F0C00210430860D4E9031092
:10041000084321688A6848F2FF339A431043886092
:10042000D4E9050108432168CA6822F0FF0210439D
:10043000C8602068016841F001010160A56301E026
:1004400005E00BE0012084F83500002070BD01EBD1
:100450004102B0FBF2F2BCE70120C7E701EB41012A
:10046000B0FBF1F0C0E7000080841E0040420F00A6
:10047000A086010000B500680E4987B0884216D1F9
:10048000C0200090122001900120029003200390D0
:100490000420049069460848FFF776FE0748016883
:1004A00041F400110160006800F40010059007B0ED
:1004B00000BD000000540040000402402438024007
:1004C00002480168491C01607047000000000020DC
:1004D00010B5032000F064F8002000F004F800F0EC
:1004E00013F8002010BD10B5044600F001FA4FF4D7
:1004F0007A71B0FBF1F000F0C4FE00222146501EDC
:1005000000F02EF8002010BD0E4808B5016841F03B
:1005100000410160006800F0004000900948001FA1
:10052000016841F001010160006800F001000090E5
:10053000032000F035F80022BDE808401146501EA7
:1005400000F00EB82438024000F01F020121914053
:100550004009800000F1E020C0F800117047000061
:10056000F0B40E4B1B680C46C3F30223C3F107051E
:10057000042D00D90425191D072901D2002300E00C
:10058000DB1E012606FA05F1491E214099409E40D6
:10059000761E16403143F0BC00F0ECBF0CED00E0DD
:1005A000064900F0070208684FF6FF03184040EACA
:1005B0000220034A10430860704700000CED00E081
:1005C0000000FA050248006800F4C05070470000BF
:1005D000007000402DE9F05FDFF80CA304460E46E2
:1005E000DAF80000C14900F001070122DFF8FC92AF
:1005F000BE48343153044FF0007B4FF0020E41F2FD
:10060000883509F10809B74270D2012E05D1DAF810
:1006100000C04CF0040CCAF800C0DAF800C02CF09E
:10062000010C4CEA060CCAF800C0DAF8007007F0BA
:100630000107B74275D12678B60709D5D9F80070F9
:10064000D4F808C027F0F00747EA0C07C9F8007093
:100650002678F60758D06768022F05D0032F10D0F0
:10066000012F1CD04FF4007393FAA3F6B6FA86F666
:1006700046F0200676093AD0D0F8000093FAA3F1AC
:100680001AE09BFAABF6B6FA86F646F02006760933
:1006900001D0006800E008689BFAABF10CE09EFA1C
:1006A000AEF6B6FA86F646F02006760901D0006866
:1006B00000E008689EFAAEF1B1FA81F101F01F0185
:1006C0008A4010422DD0D9F800004E4620F0030099
:1006D0003843C9F80000FFF727FE07466068022884
:1006E0000DD0032817D0012821D02CE030E0086875
:1006F000C4E700BFFFF718FEC01BA8427ED83068D1
:10070000C0F381000228F5D1D1E000BFFFF70CFE55
:10071000C01BA84272D83068C0F381000328F5D10D
:10072000C5E0C2E0FFF700FEC01BA84266D83068F3
:10073000C0F381000128F5D1B9E000BFFFF7F4FD57
:10074000C01BA8425AD8306810F00C0FF6D1AEE0AA
:100750002778BF0709D5D9F800C0D4F808802CF055
:10076000F00C4CEA080CC9F800C02778FF0760D0ED
:100770006768022F05D0032F11D0012F1ED04FF430
:10078000007393FAA3FCBCFA8CFC4CF0200C5FEADB
:100790005C1C3ED0D0F8000093FAA3F11CE09BFA59
:1007A000ABFCBCFA8CFC4CF0200C5FEA5C1C01D06A
:1007B000006800E008689BFAABF10DE09EFAAEFC21
:1007C000BCFA8CFC4CF0200C5FEA5C1C01D0006889
:1007D00000E008689EFAAEF1B1FA81F101F01F0164
:1007E0008A40104261D0D9F8001021F0030139434A
:1007F000C9F80010FFF798FD074600E039E060688F
:1008000002280FD003281BD0A84601284D4624D02B
:1008100032E00868C0E700BFFFF786FDC11B414515
:1008200002D926E0A8464D462868C0F38100022878
:10083000F2D125E0FFF778FDC11B414502D918E050
:10084000A8464D462868C0F381000328F2D117E07E
:10085000FFF76AFDC11B41450BD82868C0F3810032
:100860000128F5D10CE000BFFFF75EFDC11B41453B
:1008700002D90320BDE8F09F286810F00C0FF3D1D7
:10088000012E05D1DAF8001041F00401CAF8001079
:10089000DAF8001021F001013143CAF80010DAF84B
:1008A000000000F00100B04201D00120E2E7207812
:1008B000400707D5D9F80010E26821F4E061114340
:1008C000C9F800102078000708D5D9F8001022696F
:1008D00021F4605141EAC201C9F800100020FFF77D
:1008E00002FE0020C6E70000003C02400038024043
:1008F00000B500F043F808490968F02292FAA2F224
:1009000001F0F001B2FA82F2D140044A515CC840D1
:100910000349086000BD000008380240D0190008F3
:100920000400002000B5FFF7E3FF074909684FF412
:10093000E06292FAA2F201F4E061B2FA82F2D140EE
:10094000024A515CC84000BD08380240D019000876
:1009500000B5FFF7CDFF074909684FF4605292FADE
:10096000A2F201F46051B2FA82F2D140024A515C23
:10097000C84000BD08380240D01900081F4A11685D
:1009800001F00C00042813D0082813D00C2813D031
:10099000101F006800F460414FF4604090FAA0F02E
:1009A000B0FA80F0C1404FF40040491C88407047C5
:1009B00013487047134870474FF4701393FAA3F32A
:1009C00001F47010B3FA83F3D8400F4B01F44001E7
:1009D0001268185C4FF4400393FAA3F3B3FA83F35D
:1009E000D940094B143B595CD20301D5054A00E0BC
:1009F000034A5043B0FBF1F0704700000838024052
:100A00000024F40000127A00E01900082DE9F84FE4
:100A100004460078DFF8E4B3F94FFA4EC0074FF010
:100A2000010528D0DBF800105846C1F381014FF4CE
:100A30000038022907D00168C1F3810103291BD1C5
:100A40000068C00318D598FAA8F0B0FA80F040F01A
:100A50002000400901D0386800E0306898FAA8F119
:100A6000B1FA81F101F01F0105FA01F1084202D04B
:100A70006068002874D07FE0386820F480303860E7
:100A8000386820F480203860FFF74EFC814605E08E
:100A9000FFF74AFCA0EB090064287DD898FAA8F07B
:100AA000B0FA80F040F02000400901D0386800E042
:100AB000306898FAA8F1B1FA81F101F01F0105FA46
:100AC00001F10842E4D1606801280AD008B1052884
:100AD00011D0386820F480303860386820F48020E5
:100AE00002E0386840F480303860606820B3FFF777
:100AF0001BFC81460AE0386840F480203860F0E74B
:100B0000FFF712FCA0EB09006428C6D898FAA8F0F9
:100B1000B0FA80F040F02000400901D0386800E0D1
:100B2000306898FAA8F1B1FA81F101F01F0105FAD5
:100B300001F10842E4D01FE0FFF7F6FB814605E033
:100B4000FFF7F2FBA0EB09006428A6D898FAA8F0FA
:100B5000B0FA80F040F02000400902D0386801E08F
:100B6000B1E0306898FAA8F1B1FA81F101F01F0103
:100B700005FA01F10842E3D12078DFF88C82800782
:100B80004FF0000A4FF0020960D5DBF8001058461C
:100B9000C1F38101012900E076E107D00168C1F3CA
:100BA000810103291BD10068C00318D499FAA9F068
:100BB000B0FA80F040F02000400901D0386800E031
:100BC000306899FAA9F1B1FA81F101F01F0105FA33
:100BD00001F108422BD0E068012874D127E0E068D9
:100BE000A8B395FAA5F0B0FA80F048F82050FFF7C6
:100BF0009BFB009006E000BFFFF796FB0099401AB0
:100C00006428A2D899FAA9F0B0FA80F040F0200048
:100C1000400901D0386800E0306899FAA9F1B1FACA
:100C200081F101F01F0105FA01F10842E4D0734897
:100C3000001F01684FF4F85393FAA3F32269B3FA43
:100C400083F321F4F8519A401143016025E0FFE756
:100C500095FAA5F1B1FA81F148F821A0FFF764FBFC
:100C6000009005E0FFF760FB0099401A6428C8D89F
:100C700099FAA9F0B0FA80F040F02000400901D0C4
:100C8000386800E0306899FAA9F1B1FA81F101F011
:100C90001F0105FA01F10842E4D12078C0066ED5A3
:100CA000DBF8000010F00C0F0ED0A1694FF480703B
:100CB000E9B390FAA0F0B0FA80F048F82050FFF7BE
:100CC00033FB009062E08EE04FF4007191FAA1F0E6
:100CD000B0FA80F040F02000400901D0386800E010
:100CE000306891FAA1F1B1FA81F101F01F0105FA22
:100CF00001F1084202D0A069002874D03F48216A5F
:100D0000001F006800F4604081421CD9084600F0D2
:100D100041FC002867D13948001F0168226A21F48C
:100D2000604111430160016821F07F4100E05BE018
:100D30004FF07F4393FAA3F3E269B3FA83F39A4047
:100D40001143016018E02D48001F026822F4604240
:100D50000A43026001684FF07F4393FAA3F3E2690C
:100D6000B3FA83F321F07F419A4011430160206A76
:100D700000F010FC0028CDD10020FFF7B4FB62E0AA
:100D8000FFF7D2FA0099401A64287DD84FF4007119
:100D900091FAA1F0B0FA80F040F02000400901D0B3
:100DA000386800E0306891FAA1F1B1FA81F101F000
:100DB0001F0105FA01F10842E2D01048001F016846
:100DC000226A21F460411143016001684FF07F43C2
:100DD00093FAA3F3E269B3FA83F321F07F419A40D7
:100DE000114301602FE0B1E190FAA0F0B0FA80F079
:100DF00048F820A0FFF798FA00900DE0083802406C
:100E0000003802403438024000004742FFF78CFAB5
:100E10000099401A6428B8D84FF4007191FAA1F0F3
:100E2000B0FA80F040F02000400901D0386800E0BE
:100E3000306891FAA1F1B1FA81F101F01F0105FAD0
:100E400001F10842E2D12078000755D5606950B31E
:100E500095FAA5F0B0FA80F008EB8000C0F8805653
:100E6000FFF762FA009005E0FFF75EFA0099401A7A
:100E700064288AD899FAA9F0B0FA80F040F04000CE
:100E8000B5EB501F03D100E090E0386800E0306817
:100E900099FAA9F1B1FA81F101F01F0105FA01F205
:100EA0001042E1D028E095FAA5F1B1FA81F108EB02
:100EB0008101C1F880A6FFF737FA009006E000BF75
:100EC000FFF732FA0099401A64286FD899FAA9F00E
:100ED000B0FA80F040F04000B5EB501F01D1386807
:100EE00000E0306899FAA9F1B1FA81F101F01F012F
:100EF00005FA01F21042E3D12078400779D5A548E0
:100F0000016841F080510160006800F0805000905D
:100F1000A148016841F480710160FFF705FA81463C
:100F200006E000BFFFF700FAA0EB090064283DD8F7
:100F300099480068C005F5D5306820F480703060AD
:100F4000306820F480603060FFF7EEF94FF40079EC
:100F5000009007E0FFF7E8F90099411A41F2883064
:100F6000814223D899FAA9F0B0FA80F040F040000D
:100F7000B5EB501F01D1386800E0306899FAA9F14B
:100F8000B1FA81F101F01F0105FA01F10842E1D146
:100F9000A06801280BD008B1052812D0306820F4D1
:100FA00080703060306820F4806003E08CE030684E
:100FB00040F480703060A06840B3FFF7B5F900904E
:100FC0000CE0306840F480603060F0E7FFF7ACF987
:100FD0000099411A41F28830814275D899FAA9F0F6
:100FE000B0FA80F040F04000B5EB501F02D13868F5
:100FF00001E02DE0306899FAA9F1B1FA81F101F030
:101000001F0105FA01F21042E0D021E0FFF78CF950
:10101000009007E0FFF788F90099411A41F2883003
:10102000814251D899FAA9F0B0FA80F040F040001E
:10103000B5EB501F01D1386800E0306899FAA9F18A
:10104000B1FA81F101F01F0105FA01F21042E1D17C
:10105000606AC0B3DBF80010C1F38101032975D0C9
:1010600002284FF080714FF0007950460BD091FA72
:10107000A1F1B1FA81F148F82100FFF755F9B8461E
:1010800004464F466CE04FF0807191FAA1F1B1FA3D
:1010900081F18A0041495050FFF746F9BA4680462F
:1010A0004F4605E0FFF740F9A0EB0800642854D84C
:1010B00097FAA7F0B0FA80F040F02000400904D081
:1010C000DAF8000002E061E047E0306897FAA7F143
:1010D000B1FA81F101F01F0105FA01F10842E1D1F5
:1010E000D4E90A10226BDBF80030014323F47D03BE
:1010F0001A431143CBF800104FF0807090FAA0F023
:10110000B0FA80F0810025480D50FFF70DF9044634
:1011100005E000BFFFF708F9001B64281DD897FA07
:10112000A7F0B0FA80F040F02000400902D0DAF8D1
:10113000000000E0306897FAA7F1B1FA81F101F000
:101140001F0105FA01F10842E4D01FE020E000BFD2
:10115000FFF7EAF8001B642802D90320BDE8F88FE6
:1011600097FAA7F0B0FA80F040F02000400902D0D2
:10117000D8F8000000E0306897FAA7F1B1FA81F1E1
:1011800001F01F0105FA01F10842E1D10020E5E775
:101190000120E3E72438024000700040000047428D
:1011A00070B5040004D094F85100002510B106E099
:1011B000012070BD84F85050204600F02FF8022026
:1011C00084F851002068016821F040010160D4E9F1
:1011D00001010843D4E9031211430843616908433C
:1011E000218B01F400710843E1690843216A084337
:1011F000A16A084321680860A069042101EA10403F
:10120000616A0843216848602168E06A0861656591
:10121000012084F85100002070BD000000B5006876
:101220000E4987B0884216D10D48016841F48051BB
:1012300001600068694600F480500590E02000904D
:1012400002200190002002900320039005200490CA
:101250000448FEF799FF07B000BD000000300140D0
:1012600020380240000002404FF0E02104280869C5
:1012700003D020F004000861704740F00400FAE752
:10128000704710B5401EB0F1807F01D3012010BD22
:101290004FF0E02460610F21601700F06BF900202F
:1012A000A06107202061002010BD10B5FFF7E8FF06
:1012B00010BD704738B5044600680168C26811F077
:1012C000010F02F4807204D01AB1E16B41F0010108
:1012D000E1630168C1F34002416901F0010122B1FB
:1012E00019B1E26B42F00402E2630268C2F38002C9
:1012F00022B119B1E26B42F00202E2630268C2F36A
:10130000C00222B119B1E16B41F00801E16301684B
:10131000C068C1F3401100F0200019B110B120469F
:1013200000F0E8F920680168C068C1F3C01100F05E
:10133000800019B110B1204600F0E4FA2168086875
:10134000CA68C0F3801002F04002012570B16AB192
:10135000CA68204622F04002CA6094F83910322947
:1013600011D080F8395000BF00F06FF8E06B002812
:1013700008D0206801684068009084F83950204601
:10138000FFF797FF38BD222180F83910ECE770B5E0
:10139000040004D094F83900002510B106E00120C3
:1013A00070BD84F83850204600F020F8022084F800
:1013B00039002068C16821F40051C160204600F066
:1013C000EDF92068016921F49041016120684169CB
:1013D00021F02A0141612068C16841F40051C160D7
:1013E000E563012084F83900002070BD00B5006875
:1013F000124987B088421FD11148016841F48041E9
:1014000001600068694600F4804005904FF4C060B8
:1014100000900220019001200290032003900720F9
:1014200004900848FEF7B0FE002201212520FFF7B6
:1014300097F82520FFF788F807B000BD0038014075
:1014400020380240000002407047704730B5224803
:1014500087B0016841F004010160016801F00401F6
:101460000591016841F020010160016801F020014F
:101470000591016841F001010160016801F001017D
:101480000591016841F0020101600068012400F04B
:101490000200059011480225CDE9004069460295F9
:1014A0000F48FEF771FE0020CDE90054CDE902405F
:1014B0000C4C69462046FEF767FE002202212046BA
:1014C000FEF72CFF002202210620FFF749F8062034
:1014D000FFF73AF807B030BD1C3802400000111089
:1014E0000000024000040240094808494FF48042CD
:1014F00001600849416000218160C0E90312416137
:101500008161C1610162FEF715BF00000054004017
:1015100008000020A08601000B480A494FF4007221
:1015200001604FF48271416000218160C1600161FE
:10153000C0E90512C1610162416281620A21C16292
:10154000FFF72EBE00300140440000200848074944
:1015500001604FF4E1314160002181600C22C160E3
:10156000C0E904128161C161FFF711BF0038014079
:101570009C0000200907090E002806DA00F00F0081
:1015800000F1E02080F8141D704700F1E02080F8A1
:1015900000147047F8B507461A48002600681A4D2F
:1015A00010F0F00F20D1174C1C342068C00002D579
:1015B000FFF708F80DE0206840F0805020602068B8
:1015C00000F080500090FEF7FDFF216821F080516F
:1015D0002160B0F5C05F07D1B7F5404F04D128684E
:1015E000012640F004002860286820F00100304304
:1015F0002860286800F00100B04201D00120F8BD49
:101600000020F8BD08380240003C024010B5FEF74B
:1016100057FFBDE81040FFF748BE00001F4800B567
:10162000016893B041F080510160006800F0805083
:1016300012901B48016821F4C05141F4006101601F
:1016400001200090019002200990C0030A904FF4FD
:1016500040200B904FF480000C906846FFF7D6F9BD
:101660000F200D9003200E9000200F9010901190ED
:1016700001210DA8FEF7AEFFFFF73AF94FF47A719A
:10168000B0FBF1F0FFF7FDFD0420FFF7EDFD0022B8
:101690001146501EFEF764FF13B000BD243802400F
:1016A000007000400F48016841F4807101600D49ED
:1016B00008310A680C4B1A400A6002680B4B1A404A
:1016C0000260026822F480220260086820F47D0033
:1016D00008600020091D086005494FF0006008609F
:1016E00070470000003802400CC0FF88FEFFFEEE8D
:1016F00008ED00E010B590F83910222903D0322906
:1017000001D0022010BD8168B1F5805F11D0016960
:10171000002901681FD0496801F07F03816A4A1CD3
:1017200082620B70C18D491E0904090CC18518D055
:1017300030E00269816A002A0268526805D0D2B29C
:101740000A80816A491C8162ECE7C2F308020A80C0
:10175000816A891CF7E74A68816A4B1C83620A70B8
:10176000E0E70168CA6822F02002CA6090F83910E8
:10177000322911D00168CA6822F48072CA600168F7
:101780004A6922F001024A615FF0010180F83910D4
:10179000FFF75AFE002010BD1221F7E72DE9F041B6
:1017A000044600680169E26821F440511143016177
:1017B0002169A068E269084361691143084321680F
:1017C000CA6849F20C639A430243CA6020684169BF
:1017D000A26921F4407111434161E1696425322617
:1017E000B1F5004F464821681BD0814267D1FFF711
:1017F000AFF800EBC00101EB00106168A84689005A
:10180000B0FBF1F1B1FBF8F5FFF7A2F800EBC00176
:1018100001EB001061688900B0FBF1F7FFF798F861
:1018200066E0814219D1FFF793F800EBC00101EBAC
:1018300000106168A8464900B0FBF1F1B1FBF8F572
:10184000FFF786F800EBC00101EB0010616849006A
:10185000B0FBF1F7FFF77CF818E0FFF763F800EB57
:10186000C00101EB00106168A8464900B0FBF1F12E
:10187000B1FBF8F5FFF756F800EBC00101EB0010E3
:1018800061684900B0FBF1F7FFF74CF800EBC001CD
:1018900001EB001061684900B0FBF1F1B1FBF8F019
:1018A0006FF01801484307EB800006EB0011B1FB15
:1018B000F8F0216865F31F108860BDE8F081FFF73C
:1018C00031F800EBC00101EB00106168A846890007
:1018D000B0FBF1F1B1FBF8F5FFF724F800EBC00124
:1018E00001EB001061688900B0FBF1F7FFF71AF80F
:1018F00000EBC00101EB001061688900CCE700003B
:101900000038014090F83910122903D0322901D053
:10191000022070478168B1F5805F016A0BD04A1CD4
:101920000262026809785160C18C491E0904090CE1
:10193000C1840ED017E009880268C1F30801516024
:1019400001690029016A02D0491C0162ECE7891C87
:10195000FBE70168CA6822F08002CA600068C168BB
:1019600041F04001C1600020704700000148FFF7CE
:10197000A1BC00009C00002002E008C8121F08C1A2
:10198000002AFAD170477047002001E001C1121F00
:10199000002AFBD170470000FEF79AFDFFF73EFEDC
:1019A000FFF754FDFFF7A0FDFFF7B6FDFFF7CEFDF3
:1019B000054D4FF4FA742046FEF7CDFB0221284670
:1019C000FEF7A8FCF7E70000000402400102030450
:1019D00000000000010203040102030406070809D5
:1019E000030406080C101820300000000C1A000830
:1019F000000000200800000078190008141A0008F0
:101A000008000020D802000088190008000000002B
:041A10000048E801A1
:04000005080000F5FA
:00000001FF
