:020000040800F2
:10000000C0030020090100081101000813010008C5
:100010001501000817010008190100080000000080
:100020000000000000000000000000001B010008AC
:100030001D010008000000001F010008212D00081C
:100040002301000823010008230100082301000800
:1000500023010008230100082301000823010008F0
:100060002301000823010008230100087902000889
:1000700023010008230100082301000823010008D0
:1000800023010008230100082301000823010008C0
:1000900023010008230100082301000823010008B0
:1000A00000000000230100082301000823010008CC
:1000B0002301000823010008230100082301000890
:1000C0002301000823010008230100082301000880
:1000D0002301000823010008230100082301000870
:1000E0002301000823010008230100082301000860
:1000F00023010008DFF80CD000F02EF8004800477C
:10010000BD310008C003002006488047064800476C
:10011000FEE7FEE7FEE7FEE7FEE7FEE7FEE7FEE7B7
:10012000FEE7FEE7C92D0008F500000830B50B46D4
:10013000014600202022012409E021FA02F59D4217
:1001400005D303FA02F5491B04FA02F52844151EEB
:10015000A2F10102F1DC30BD064C074D06E0E0687B
:1001600040F0010394E8070098471034AC42F6D3FE
:10017000FFF7C4FF543200087432000810B501467E
:10018000406AC26C12F0500F05D0406C026BBDE8A3
:10019000104008461047C16C41F40071C164016809
:1001A0008A6812F0405F17D1426AAAB90A6B12F04E
:1001B000F87F02D08A6852050ED44A6822F02002E5
:1001C0004A60C16C21F48071C164C16CC90403D45C
:1001D000C16C41F00101C16400F0C0F910BD10B55F
:1001E000406AC16C41F04001C164016D41F00401FD
:1001F000016500F0C0F910BD10B5406A00F0BAF911
:1002000010BD0000F8B5002604460096006801689D
:10021000C94349062AD5816841F00101816014482B
:1002200014490068B0FBF1F000EB400000E0401E14
:1002300000900028FBD101F00DF8054611E000BF49
:1002400001F008F8401B02280BD9E06C40F01000C8
:10025000E064206D40F00100206584F848600120D2
:10026000F8BD20680068C0434006E9D40020F8BD0E
:100270000400002040420F00014800F00BBC0000C9
:100280006000002010B5046863604368102B0368A9
:1002900003D099600068C26010BD9A600068C160B8
:1002A00010BD0000F8B500270C4605460097006811
:1002B00098493E46884204D040F2696196A002F017
:1002C00073FF2068C0B3012836D0022834D0032839
:1002D00032D0042830D005282ED006282CD007286C
:1002E0002AD0082828D0092826D00A2824D00B286C
:1002F00022D00C2820D00D281ED00E281CD00F286C
:100300001AD0102818D0112816D0122814D013286B
:1003100012D0142810D015280ED016280CD017286B
:100320000AD0182808D0192806D01A2804D040F27C
:100330006A6179A002F038FF6068012838D002288D
:1003400036D0032834D0042832D0052830D00628EF
:100350002ED007282CD008282AD0092828D00A28EF
:1003600026D00B2824D00C2822D00D2820D00E28EF
:100370001ED00F281CD010281AD0112818D01228EF
:1003800016D0132814D0142812D0152810D01628EF
:100390000ED017280CD018280AD0192808D01A28EF
:1003A00006D01B2804D040F26B615BA002F0FCFE7B
:1003B000A06890B1012810D002280ED003280CD0DC
:1003C00004280AD0052808D0062806D0072804D01B
:1003D00040F26C6150A002F0E7FE95F84800012859
:1003E00012D0012085F8480060681F2107280DD22F
:1003F0002A68136C401E00EB800081408B4321680B
:1004000081400B43136436E00220F8BD0D280BD267
:100410002A68D36BC01F00EB800081408B432168AA
:1004200081400B43D36326E013280BD22A68936BD9
:100430000D3800EB800081408B43216881400B43E5
:10044000936318E019280BD22A68536B133800EB1A
:10045000800081408B43216881400B4353630AE055
:100460002B681A6B193800EB800081408A432168A1
:1004700081400A431A63206807210A280AD22A68A1
:10048000536900EB400081408B43A16881400B43DE
:1004900053611AE014280BD22A6813690A3800EB5A
:1004A000400081408B43A16881400B4313610CE005
:1004B0001A2810D82A68D368143800EB400081400D
:1004C0008B43A16881400B43D3602068102804D07F
:1004D000112802D019E000BF17E01D480168090289
:1004E00013D4016841F400010160206810280CD188
:1004F000184819490068B0FBF1F000EB800040009B
:1005000000E0401E00900028FBD185F84860384686
:10051000F8BD0000002401402E2E2F44726976653C
:1005200072732F53544D33324C3178785F48414CBD
:100530005F4472697665722F5372632F73746D33E3
:10054000326C3178785F68616C5F6164632E630040
:10055000042701400400002040420F00014902A08E
:1005600002F058BDAC0100204144432043503A25DD
:10057000640D0A00704770472DE9F84F04004FF0F2
:1005800000057DD0CD492068884204D04FF4CA715F
:10059000CBA002F009FE60684FF480364FF40038BB
:1005A00040B1B04206D0404504D040F29511C4A0FD
:1005B00002F0FAFDA0684FF0807B4FF000794FF019
:1005C000407A50B1584508D0484506D0504504D02F
:1005D0004FF4CB71BAA002F0E7FDE06838B1B0F596
:1005E000006F04D040F29711B5A002F0DDFD206944
:1005F0004FF4807730B1B84204D04FF4CC71B0A042
:1006000002F0D2FD6069B0F5806F05D020B140F2F4
:100610009911ABA002F0C8FDA06990B1102810D0CC
:1006200020280ED030280CD040280AD0502808D0DE
:10063000602806D0702804D04FF4CD71A0A002F03D
:10064000B3FDE06958B1404509D0B04207D0B0F5DC
:10065000403F04D040F29B1199A002F0A5FD206A12
:1006600020B14FF4CE7196A002F09EFD606A30B1C9
:10067000012804D040F29D1191A002F095FD00E008
:1006800066E0606B484523D0504521D0B0F1C06F83
:100690001ED0B0F1E06F1BD0B0F1006F18D0B0F1F8
:1006A000806F15D0B0F1A06F12D0B0F1106F0FD0E5
:1006B000B0F1206F0CD058B1584509D0B0F1706F2F
:1006C00006D0102804D04FF4CF717DA002F06CFD4D
:1006D000E06B30B1012804D040F29F1178A002F005
:1006E00063FD206900281CD0A06A401E1A2804D986
:1006F00040F2A31172A002F057FDE06A88B1012810
:1007000006D04FF4D2716EA002F04EFDE06A40B107
:10071000206B401E072804D940F2A71168A002F000
:1007200043FD606B10280FD0A06B68B1B0F1805F03
:100730000AD0B0F1005F07D0B0F1405F04D040F2C2
:10074000AD115FA002F030FDE06C002618B111E0A1
:100750000120BDE8F88F2665674884F84860016885
:1007600041F001010160006800F0010000902046A6
:1007700000F0CCF8E06CC00671D4E06C20F4885036
:1007800040F00200E0645D480168626821F4403195
:10079000114301606169E0684FF40073084393FA04
:1007A000A3F3E26BB3FA83F3216A9A40114308433F
:1007B000022191FAA1F1626AB1FA81F102FA01F122
:1007C0000843616B102902D0A36B194308432368C7
:1007D0001968C943490629D5A169D4F81CC0084342
:1007E000A168D4F8108041EA0C01B8450CD0B8F1EA
:1007F000010F09D04FF0000C41EA0C01D4F82CC0D5
:10080000BCF1010F02D00AE0BC46F5E742B3E26C4E
:1008100042F02002E264226D42F0010222655A6831
:10082000DFF8DCC002EA0C020A435A6021688A68D9
:10083000344B1A4002438A602169B94221680A6B2D
:100840001DD122F0F8734FF0F877A26A97FAA7F754
:10085000B7FA87F7521EBA4013430B6312E029E040
:10086000FFE74FF4604C226B9CFAACFCBCFA8CFCAA
:10087000521E02FA0CF20A4342F40061CFE722F062
:10088000F8720A63216889681F4A1140814207D1C2
:100890002665E06C20F0020040F00100E0640AE010
:1008A000E06C20F0020040F01000E064206D40F0A9
:1008B00001002065012528464BE700000024014087
:1008C0002E2E2F447269766572732F53544D333236
:1008D0004C3178785F48414C5F4472697665722F7D
:1008E0005372632F73746D33326C3178785F686143
:1008F0006C5F6164632E630020380240042701406E
:10090000FF16FCFC8DF1FFC0FEFF80BF70B50546F1
:100910000068164986B0884225D11548016841F41F
:10092000007101600068002600F40070059002204C
:1009300000900320CDE9010669460E4800F0F8FA60
:100940000E4C0D48C4E900068020C4E90260400056
:100950002061800060612020C4E90606204600F086
:10096000CFF96C64656206B070BD000000240140E0
:100970002038024000000240086002406000002071
:100980002DE9F0410F46044600683049164688427A
:1009900004D040F2CD412EA002F006FC94F84800AD
:1009A000012808D0012084F848002046FFF72AFCDF
:1009B000050003D047E00220BDE8F081E06C40F282
:1009C0000161884340F48070E0642068406840051D
:1009D00005D5E06C20F4005040F48050E064E06CF9
:1009E000C1044FF0000004D5216D21F006012165FE
:1009F00000E0206584F84800616C23488862616CDF
:100A00002248C862616C2248086321686FF00200C6
:100A100008602068416841F0806141602068816819
:100A200041F480718160216833463A465831606CE8
:100A300000F018FA2068816811F0405F03D18168E6
:100A400041F0804181602846B6E700000024014063
:100A50002E2E2F447269766572732F53544D3332A4
:100A60004C3178785F48414C5F4472697665722FEB
:100A70005372632F73746D33326C3178785F6861B1
:100A80006C5F6164632E63007D010008F90100085A
:100A9000DF0100082DE9F05FDFF860820446D8F836
:100AA0000020DFF858B2954D944E944F0068DFF85F
:100AB0004C92DFF848A20BF1080B1C353036443756
:100AC0004FF400614FF4004C4FF4002E09F1580927
:100AD0000AF16C0A584501D1082316E0A84201D159
:100AE000802312E0B04201D10B460EE0B84201D1A2
:100AF00063460AE0484501D1734606E0504502D1FD
:100B00004FF4000301E04FF000631A4231D0026855
:100B1000D24312072DD4026822F008020260206836
:100B2000584501D1082114E0A84201D1802110E0EC
:100B3000B0420ED0B84201D161460AE0484501D129
:100B4000714606E0504502D14FF4000101E04FF03C
:100B50000061C8F80410606B40F00100606304207D
:100B600084F82100002084F82000216B09B1204680
:100B700088476248D0F800C04FF4806120680A01BD
:100B80000B044FF4802E584502D14FF0040816E0B4
:100B9000A84202D14FF0400811E0B04201D188468E
:100BA0000DE0B84201D1904609E0484501D1F04638
:100BB00005E0504502D14FF4800800E098461CEA59
:100BC000080F33D0D0F800C06FEA0C0C5FEA4C7C01
:100BD0002CD4D0F800C05FEA8C6C05D4D0F800C0EB
:100BE0002CF0040CC0F800C02068584501D1042145
:100BF00013E0A84201D140210FE0B0420DD0B8422D
:100C000001D1114609E0484501D1714605E0504542
:100C100002D14FF4800100E01946384841601120AC
:100C200084F82100E16A09B120468847334AD2F8A6
:100C300000C05B46206851154FF4005B4FF4003E46
:100C4000984202D14FF0020817E0A84202D14FF0BB
:100C5000200812E0B04201D188460EE0B84201D12E
:100C6000D8460AE0484501D1F04606E0504502D199
:100C70004FF4001801E04FF000781CEA080F3BD059
:100C8000D0F800C06FEA0C0C5FEA8C7C34D4D0F84A
:100C900000C05FEA8C6C05D4D0F800C02CF0020CC8
:100CA000C0F800C02068984201D1022114E0A84297
:100CB00001D1202110E0B0420ED0B84201D15946F6
:100CC0000AE0484501D1714606E0504502D14FF493
:100CD000001101E04FF000715160606B6063012012
:100CE00084F82100002084F82000A16A002903D0A4
:100CF0002046BDE8F05F0847BDE8F09F0060024075
:100D000070B504006ED04849206888421BD046491F
:100D10001431884217D044492831884213D04249BF
:100D20003C3188420FD04049503188420BD03E4977
:100D30006431884207D03C497831884203D0B521DC
:100D40003AA002F031FA606840B1102806D0B0F540
:100D5000804F03D0B62135A002F026FAA0684028C3
:100D600004D018B1B72131A002F01EFAE068802843
:100D700004D018B1B8212DA002F016FA206948B1AC
:100D8000B0F5807F06D0B0F5007F03D0B92127A051
:100D900002F00AFA606948B1B0F5806F06D0B0F58C
:100DA000006F03D0BA2121A002F0FEF9A06928B19A
:100DB000202803D0BB211DA002F0F6F9E06960B144
:100DC000B0F5805F09D0B0F5005F06D0B0F5405FA8
:100DD00003D0BC2115A002F0E7F994F8210000230C
:100DE00010B103E0012070BD84F82030022084F8A7
:100DF00021002268116843F6F0708143D4E90105AF
:100E00002843D4E903563543284365692843A56937
:100E10002843E5692843084310606363012084F890
:100E20002100002070BD0000086002402E2E2F44DB
:100E30007269766572732F53544D33324C31787822
:100E40005F48414C5F4472697665722F5372632F1D
:100E500073746D33326C3178785F68616C5F646D88
:100E6000612E63002DE9F041044690F820001D46F4
:100E700016460F46012831D0012084F820000220B8
:100E800084F82100681E4FF6FF71884204D340F2B7
:100E9000611113A002F088F92068016821F00101B6
:100EA00001602B46324639462046FFF7EBF92068B1
:100EB000016841F0020101602068016841F004010D
:100EC00001602068016841F0080101602068016844
:100ED00041F0010101600020BDE8F0810220FBE744
:100EE0002E2E2F447269766572732F53544D333210
:100EF0004C3178785F48414C5F4472697665722F57
:100F00005372632F73746D33326C3178785F68611C
:100F10006C5F646D612E630031B500F09BF904468F
:100F200000F098F90099001B8842F9D338BD000001
:100F30002DE9F84FDFF838820027DFF838B20D4688
:100F40000446404511D05C450FD08B4884420CD0FC
:100F50008A48844209D08A48844206D0894884421B
:100F600003D0CB2188A002F01FF928880004000CD0
:100F700003D1CC2184A002F017F96868F8B10128E8
:100F80001DD011281BD0022819D0122817D08D4946
:100F9000884214D08C49884211D08C4988420ED0A6
:100FA0008B4988420BD08B49884208D08A498842B5
:100FB00005D0032803D0CD2173A002F0F5F8A8686E
:100FC000002807D00128FCD00228FAD0CE216EA03C
:100FD00002F0EAF8C5E00120B840009006407DD05C
:100FE0006868022801D0122827D1444511D05C45F9
:100FF0000FD0614884420CD06048844209D06048D8
:10100000844206D05F48844203D0DD215EA002F016
:10101000CBF828690F2803D9DE215BA002F0C4F8C1
:10102000F80804EB8003186A7907CA0E0F21914073
:10103000884329699140014319622068790003229D
:1010400002FA01FA2A79894602F0030220EA0A002C
:1010500002FA09F2024322606868012805D00228DA
:1010600003D0112801D012281CD1E86848B101280A
:1010700007D0022805D0032803D0F32142A002F0B4
:1010800093F8A168E86821EA0A0100FA09F0084328
:10109000A0606068009988432979C1F30011B940C4
:1010A00001436160E068A96820EA0A0001FA09F1D9
:1010B0000143E1606868C00052D54848016841F0CA
:1010C00001010160006827F0030100F001000090B9
:1010D00043480A189068B9070B0F00E040E00F2161
:1010E00099408843444501D1002113E05C4501D17A
:1010F00001210FE020498C4201D102210AE01F4961
:101100008C4201D1032105E01D498C4201D104210B
:1011100000E00521994001439160324908686A68FE
:10112000B043D20300D5304308602E49091D08683A
:101130006A68B043920300D53043086029490831FA
:1011400008686A68B043D20200D530430860254978
:101150000C3108686A68B043920200D530430860D9
:101160007F1C2E6836FA07F07FF435AFBDE8F88FA4
:10117000000002400004024000080240000C02404F
:1011800000100240001402402E2E2F447269766532
:1011900072732F53544D33324C3178785F48414C41
:1011A0005F4472697665722F5372632F73746D3367
:1011B000326C3178785F68616C5F6770696F2E633D
:1011C000000000000000111000002110000031108C
:1011D00000001210000022100000321020380240DF
:1011E000000001400004014070B515460C000646A1
:1011F00004D14FF4DB7108A001F0D6FF45B1012DF9
:1012000004D040F2B71104A001F0CEFFB46170BD6C
:101210002004B06170BD00002E2E2F4472697665E7
:1012200072732F53544D33324C3178785F48414CB0
:101230005F4472697665722F5372632F73746D33D6
:10124000326C3178785F68616C5F6770696F2E63AC
:101250000000000001480068704700000000002006
:1012600070B5040065D077492068884207D0764978
:10127000884204D040F2331174A001F095FF6068F9
:101280008049401E884204D94FF49A716FA001F042
:101290008BFFA0684FF4804530B1A84204D040F2E3
:1012A00035116AA001F080FFE068800A04D04FF495
:1012B0009B7166A001F078FF2069A84207D0B0F5C5
:1012C000404F04D040F2371160A001F06DFF60691B
:1012D00030B1012804D04FF49C715CA001F064FF90
:1012E000A06930F0FE0004D040F2391157A001F09F
:1012F0005BFFE06930B1402804D04FF49D7153A0EA
:1013000001F052FF206A30B1802804D040F23B1136
:101310004EA001F049FF94F83500002520B984F86B
:101320003450204600F0B6F800F0A8FC5649884238
:1013300001D2012070BD022184F8351021680A68AD
:1013400022F001020A6051492268B0FBF1F15368B2
:1013500023F03F030B4353604D4A6368934206D921
:101360004FF4967359434FF47A73B1FBF3F123684A
:10137000491C1E6A26F03F0631431962616891429A
:101380000BD84900B0FBF1F2C2F30B02042A01D2E0
:10139000042019E0B0FBF1F016E0A368F3B301EB11
:1013A000C10202EB0112B0FBF2F242F480421205DC
:1013B00040D0A3B301EBC10202EB0111B0FBF1F08D
:1013C00040F4804040F400402168CA694CF6FF7345
:1013D0009A431043C861D4E90710014320680268AA
:1013E00022F0C00211430160D4E9031008432168D0
:1013F0008A6848F2FF339A4310438860D4E90501B4
:1014000008432168CA6822F0FF021043C8602068C0
:10141000016841F001010160A56301E005E00BE016
:10142000012084F83500002070BD01EB4102B0FBC3
:10143000F2F2BCE70120C7E701EB4101B0FBF1F09C
:10144000C0E7000000540040005800402E2E2F44FA
:101450007269766572732F53544D33324C317878FC
:101460005F48414C5F4472697665722F5372632FF7
:1014700073746D33326C3178785F68616C5F693298
:10148000632E63007F1A060080841E0040420F0016
:10149000A086010000B500680E4987B0884216D1C9
:1014A000C0200090122001900120029003200390A0
:1014B0000420049069460848FFF73AFD0748016890
:1014C00041F400110160006800F40010059007B0BD
:1014D00000BD0000005400400004024024380240D7
:1014E00002480168491C01607047000000000020AC
:1014F00010B5032000F088F8002000F004F800F098
:1015000013F8002010BD10B5044600F09DFB4FF409
:101510007A71B0FBF1F001F004FA00222146501E6E
:1015200000F022F8002010BD0E4808B5016841F017
:1015300000410160006800F0004000900948001F71
:10154000016841F001010160006800F001000090B5
:10155000032000F059F80022BDE808401146501E53
:1015600000F002B82438024070B515460C46064615
:10157000102A03D3D32114A001F016FE102C03D39C
:10158000D42111A001F010FE1E480068C0F3022310
:10159000C3F107022046042A00D90422191D072995
:1015A00001D2002300E0DB1E012404FA02F1491EEF
:1015B000014099409C40641E2C4021433046BDE8C8
:1015C000704001F061BB00002E2E2F4472697665D9
:1015D00072732F53544D33324C3178785F48414CFD
:1015E0005F4472697665722F5372632F73746D3323
:1015F000326C3178785F68616C5F636F72746578A4
:101600002E6300000CED00E010B5044607280BD057
:10161000062C09D0052C07D0042C05D0032C03D0B0
:10162000BB2108A001F0C0FD154904F007020868BD
:101630004FF6FF03184040EA0220124A10430860A8
:1016400010BD00002E2E2F447269766572732F53E1
:10165000544D33324C3178785F48414C5F44726965
:101660007665722F5372632F73746D33326C3178D9
:10167000785F68616C5F636F727465782E630000D9
:101680000CED00E00000FA050248006800F4C050CC
:1016900070470000007000402DE9F84F05460068D3
:1016A000012803D0732150A001F07EFD2878C007E7
:1016B00078D06868A8B1B0F5803F12D0B0F5003F8F
:1016C0000FD0B0F5403F0CD05649884209D056495A
:1016D000884206D05549884203D0832142A001F0B8
:1016E00063FD5348016841F0805101600068514C2E
:1016F00000F080500090206840F480702060FFF778
:10170000A9FD064605E000BFFFF7A4FD801B642885
:1017100039D82068C005F7D5454C10342068696871
:1017200000F4403001F4403181425BD02878C0079A
:1017300058D020680126F10591FAA1F2B2FA82F29E
:1017400093003D4A20F440301344C3F8806691FA78
:10175000A1F1B1FA81F102EB81010023C1F88036D9
:101760002060DFF8D880800528D5FFF773FD074695
:1017700041F2883A4FF4007908E000BFFFF76AFDB4
:10178000C11B514502D90320BDE8F88F99FAA9F091
:10179000B0FA80F040F04000B6EB501F03D1D8F80B
:1017A000000001E01EE0206899FAA9F1B1FA81F188
:1017B00001F01F0206FA02F10842DFD06968C1F3A6
:1017C0000140032808D1D8F8002001F0C04122F0E0
:1017D000C0420A43C8F800202068696801F440311B
:1017E000084320600020CFE72E2E2F4472697665D3
:1017F00072732F53544D33324C3178785F48414CDB
:101800005F4472697665722F5372632F73746D3300
:10181000326C3178785F68616C5F7263635F6578A2
:101820002E6300000000032000000340000003605E
:101830002438024000700040000047420038024057
:101840002DE9F05F0F46040004D140F2E221EEA042
:1018500001F0AAFC2068C1070AD1810708D441071A
:1018600006D4000704D440F2E321E7A001F09CFC79
:1018700037B1012F04D04FF43971E3A001F094FC8B
:10188000DFF8BCB3DBF80000DFF8B893DFF8B4A3EF
:1018900000F001000125DFF8AC8309F1340941F2C1
:1018A00088360AF1080AB84271D2012F05D1DBF857
:1018B000001041F00401CBF80010DBF8001021F01B
:1018C00001013943CBF80010DBF8000000F0010003
:1018D000B84278D1207880071ED5A068A0B18028B2
:1018E00012D0902810D0A0280ED0B0280CD0C0283C
:1018F0000AD0D02808D0E02806D0F02804D040F242
:10190000FA21C1A001F050FCDAF80010A26821F021
:10191000F0011143CAF800102078C00752D0606867
:1019200088B1012840D0022810D0032830D040F2DE
:101930000131B5A001F038FC6068022806D0032808
:1019400026D0012830D04FF4007123E04FF400314D
:1019500020E0006891FAA1F1B1FA81F101F01F01D4
:101960008D4028422FD0DAF800005546616820F0FB
:1019700003000843CAF80000FFF76CFC07466068E4
:1019800002281AD0032824D001282ED039E03DE0C7
:101990004FF0007191FAA1F0B0FA80F040F0200011
:1019A000400903D04046D4E70221F3E74846D0E798
:1019B000FFF750FCC01BB0427ED82868C0F38100FE
:1019C0000228F5D1DDE0DAE0FFF744FCC01BB042AD
:1019D000F2D82868C0F381000328F5D1D1E000BF18
:1019E000FFF738FCC01BB04266D82868C0F38100FE
:1019F0000128F5D1C5E000BFFFF72CFCC01BB042A9
:101A00005AD8286810F00C0FF6D1BAE02078800779
:101A10001ED5A068A0B1802812D0902810D0A02890
:101A20000ED0B0280CD0C0280AD0D02808D0E0288A
:101A300006D0F02804D04FF4577173A001F0B4FB26
:101A4000DAF80010A26821F0F0011143CAF8001082
:101A50002078C0077ED0606888B1012842D0022873
:101A600010D0032832D040F2633167A001F09CFB14
:101A70006068022806D0032828D0012832D04FF40D
:101A8000007125E04FF4003122E0006891FAA1F1E5
:101A9000B1FA81F101F01F018D4028426FD0DAF8D0
:101AA0000010626821F003011143CAF80010FFF72B
:101AB000D1FB0546606800E045E002281CD0032801
:101AC00028D0B0460128564631D03FE04FF0007193
:101AD00091FAA1F0B0FA80F040F02000400903D064
:101AE0004046D2E70221F3E74846CEE7FFF7B2FBD4
:101AF000411B414502D926E0B04656463068C0F346
:101B000081000228F2D125E0FFF7A4FB411B4145EB
:101B100002D918E0B04656463068C0F38100032869
:101B2000F2D117E0FFF796FB411B41450BD8306817
:101B3000C0F381000128F5D10CE000BFFFF78AFB5C
:101B4000411B414502D90320BDE8F09F306810F0E9
:101B50000C0FF3D1012F05D1DBF8001041F0040187
:101B6000CBF80010DBF8001021F001013943CBF86D
:101B70000010DBF8000000F00100B84201D00120A5
:101B8000E2E720784FF4806540074FF4A0664FF4F9
:101B9000C0674FF4E06816D5E06860B1A8420AD08B
:101BA000B04208D0B84206D0404504D040F2C63119
:101BB00015A001F0F9FADAF80010E26821F4E0610A
:101BC0001143CAF800102078000717D5206960B1CA
:101BD000A8420AD0B04208D0B84206D0404504D04E
:101BE00040F2CD3108A001F0DFFADAF800102269E6
:101BF00021F4605141EAC201CAF800100020FFF749
:101C000082FC0020A0E700002E2E2F44726976652A
:101C100072732F53544D33324C3178785F48414CB6
:101C20005F4472697665722F5372632F73746D33DC
:101C3000326C3178785F68616C5F7263632E630029
:101C4000003C02400038024000B500F043F808496B
:101C50000968F02292FAA2F201F0F001B2FA82F2DF
:101C6000D140044A515CC8400349086000BD0000EF
:101C700008380240383200080400002000B5FFF7A1
:101C8000E3FF074909684FF4E06292FAA2F201F417
:101C9000E061B2FA82F2D140024A515CC84000BD14
:101CA000083802403832000800B5FFF7CDFF074979
:101CB00009684FF4605292FAA2F201F46051B2FA4C
:101CC00082F2D140024A515CC84000BD083802404F
:101CD000383200081F4A116801F00C00042813D0A4
:101CE000082813D00C2813D0101F006800F460419E
:101CF0004FF4604090FAA0F0B0FA80F0C1404FF489
:101D00000040491C8840704713487047134870478B
:101D10004FF4701393FAA3F301F47010B3FA83F342
:101D2000D8400F4B01F440011268185C4FF4400397
:101D300093FAA3F3B3FA83F3D940094B143B595CEC
:101D4000D20301D5054A00E0034A5043B0FBF1F04D
:101D500070470000083802400024F40000127A00A6
:101D6000483200082DE9F84F040004D140F21D115B
:101D7000F3A001F019FADFF800844FF0000B4FF0E8
:101D8000020AFE4FFD4E20683436012570B1C107AE
:101D90000FD1810777D4010776D44107FCD4C00660
:101DA00073D44FF48F71E6A001F0FEF92078C007DC
:101DB00033D0606840B1012806D0052804D04FF424
:101DC0009271DFA001F0F0F9EC48083001684FF49F
:101DD0000039C1F38101022907D00168C1F38101F3
:101DE00003291BD10068C00318D599FAA9F0B0FAED
:101DF00080F040F02000400901D0386800E03068F1
:101E000099FAA9F1B1FA81F101F01F0105FA01F186
:101E1000084202D06068002878D083E0386820F457
:101E200080303860386820F480203860FFF712FA7C
:101E3000009005E0FFF70EFA0099401A64287CD85C
:101E400099FAA9F0B0FA80F040F02000400901D0E2
:101E5000386800E0306899FAA9F1B1FA81F101F02F
:101E60001F0105FA01F10842E4D1606801280DD094
:101E700008B1052814D0386820F4803038603868FC
:101E800020F4802005E050E0C0E0E9E0386840F44C
:101E900080303860606828B3FFF7DCF900900BE011
:101EA000386840F480203860F0E700BFFFF7D2F9CF
:101EB0000099401A6428C2D899FAA9F0B0FA80F0C3
:101EC00040F02000400901D0386800E0306899FAFD
:101ED000A9F1B1FA81F101F01F0105FA01F10842FF
:101EE000E4D01FE0FFF7B6F9009005E0FFF7B2F984
:101EF0000099401A6428A2D899FAA9F0B0FA80F0A3
:101F000040F02000400902D0386801E0C5E03068A8
:101F100099FAA9F1B1FA81F101F01F0105FA01F175
:101F20000842E3D12078800770D5E06840B10128ED
:101F300006D040F2671182A000E0CDE101F034F953
:101F400020691F2804D94FF4B4717DA001F02CF949
:101F50008A4808300168C1F38101012907D001686E
:101F6000C1F3810103291BD10068C00318D49AFA78
:101F7000AAF0B0FA80F040F02000400901D03868A3
:101F800000E030689AFAAAF1B1FA81F101F01F017C
:101F900005FA01F108422AD0E06801287DD126E047
:101FA000E068A0B395FAA5F0B0FA80F048F82050A8
:101FB000FFF750F9814605E0FFF74CF9A0EB090067
:101FC000642898D89AFAAAF0B0FA80F040F020007D
:101FD000400901D0386800E030689AFAAAF1B1FAF5
:101FE00081F101F01F0105FA01F10842E4D06348D4
:101FF000001D01684FF4F85393FAA3F32269B3FA72
:1020000083F321F4F8519A401143016025E0FFE782
:1020100095FAA5F1B1FA81F148F821B0FFF71AF964
:10202000814605E0FFF716F9A0EB09006428C8D83F
:102030009AFAAAF0B0FA80F040F02000400901D0EE
:10204000386800E030689AFAAAF1B1FA81F101F03B
:102050001F0105FA01F10842E4D12078C0066DD5D0
:10206000A06930B1012804D04FF4D47134A001F03C
:102070009BF8E069FF2804D940F2A91130A001F0D3
:1020800093F8206AC0B1B0F5005F15D0B0F5804F6D
:1020900012D0B0F5C04F0FD000E0B9E0B0F5004F5E
:1020A0000AD0B0F5204F07D0B0F5404F04D04FF420
:1020B000D57123A001F078F830480830006810F09E
:1020C0000C0F0DD0A1694FF48070B1B390FAA0F05D
:1020D000B0FA80F048F82050FFF7BCF881468BE05A
:1020E0004FF4007191FAA1F0B0FA80F040F02000B6
:1020F000400901D0386800E0306891FAA1F1B1FAE6
:1021000081F101F01F0105FA01F1084202D0A06936
:1021100000287DD0DFF86490216A09F10409D9F81C
:10212000000000F46040814240D9084600F0BCFD48
:1021300000286DD1D9F8001022E08AE0B1E000005B
:102140002E2E2F447269766572732F53544D33329D
:102150004C3178785F48414C5F4472697665722FE4
:102160005372632F73746D33326C3178785F6861AA
:102170006C5F7263632E63000000474200380240C8
:10218000226A21F460411143C9F80010D9F8001007
:102190004FF07F4393FAA3F3E269B3FA83F321F09C
:1021A0007F419A401143C9F800101AE0D9F8002085
:1021B00022F460420A43C9F80020D9F800104FF019
:1021C0007F4393FAA3F3E269B3FA83F321F07F41EB
:1021D0009A401143C9F80010206A00F065FD0028FC
:1021E000A7D10020FFF78FF95BE000BFFFF732F8BF
:1021F000A0EB090064286FD84FF4007191FAA1F0A8
:10220000B0FA80F040F02000400902D0386801E0C8
:10221000EDE1306891FAA1F1B1FA81F101F01F010D
:1022200005FA01F10842E1D0FE480168226A21F472
:1022300060411143016001684FF07F4393FAA3F3BB
:10224000E269B3FA83F321F07F419A4011430160C0
:1022500027E090FAA0F0B0FA80F048F820B0FEF73E
:10226000F9FF814606E000BFFEF7F4FFA0EB09008E
:102270006428C0D84FF4007191FAA1F0B0FA80F050
:1022800040F02000400901D0386800E0306891FA41
:10229000A1F1B1FA81F101F01F0105FA01F1084243
:1022A000E2D1207800075FD56069A0B3012807D08C
:1022B00040F20A21AFF2781000F076FF606950B367
:1022C00095FAA5F0B0FA80F008EB8000C0F88056CF
:1022D000FEF7C0FF814607E066E100BFFEF7BAFFE8
:1022E000A0EB0900642886D89AFAAAF0B0FA80F028
:1022F00040F04000B5EB501F01D1386800E0306875
:102300009AFAAAF1B1FA81F101F01F0105FA01F27E
:102310001042E3D028E0FFE795FAA5F1B1FA81F188
:1023200008EB8101C1F880B6FEF794FF814605E015
:10233000FEF790FFA0EB090064289AD89AFAAAF059
:10234000B0FA80F040F04000B5EB501F01D1386882
:1023500000E030689AFAAAF1B1FA81F101F01F01A8
:1023600005FA01F21042E3D12078400770D5A06849
:1023700048B1012807D0052805D04FF40D71AFF200
:10238000402000F011FFA7482030016841F0805143
:1023900001600068DFF890A200F080500090DAF849
:1023A000001041F48071CAF80010FEF753FF814617
:1023B00006E000BFFEF74EFFA0EB0900642892D8AC
:1023C000DAF80000C005F5D5306820F48070306080
:1023D000306820F480603060FEF73CFF41F2883ABC
:1023E0004FF40079009005E0FEF734FF0099411AA0
:1023F0005145A2D899FAA9F0B0FA80F040F0400017
:10240000B5EB501F01D1386800E0306899FAA9F1A6
:10241000B1FA81F101F01F0105FA01F10842E3D19F
:10242000A06801280AD008B1052812D0306820F42D
:1024300080703060306820F4806002E0306840F4E2
:1024400080703060A06830B3FEF704FF00900BE0AE
:1024500042E0306840F480603060EFE7FEF7FAFE5B
:102460000099411A5145AAD899FAA9F0B0FA80F01A
:1024700040F04000B5EB501F01D1386800E03068F3
:1024800099FAA9F1B1FA81F101F01F0105FA01F2FF
:102490001042E3D020E0FEF7DDFE009006E000BF32
:1024A000FEF7D8FE0099411A51457DD899FAA9F056
:1024B000B0FA80F040F04000B5EB501F01D1386811
:1024C00000E0306899FAA9F1B1FA81F101F01F0139
:1024D00005FA01F21042E3D1606A002865D00128B4
:1024E0000AD0022808D040F27921AFF2AC3000F0D7
:1024F0005BFE606A002858D0DFF8289109F10409D2
:10250000D9F80000C0F38100032870D0606A4FF052
:10251000807A02280CD09AFAAAF1B1FA81F148F82F
:1025200021B0FEF797FEB84604464FF00077ABE0C7
:10253000A06A40B1B0F5803F05D040F28221AFF2F1
:10254000004000F031FEE06AE8B1B0F5802F1AD00B
:10255000B0F5002F17D0B0F5402F14D0B0F5801F84
:1025600011D0B0F5A01F0ED0B0F5C01F0BD0B0F544
:10257000E01F08D0B0F5001F05D040F28321AFF274
:10258000404000F011FE206BB0F5800F0BD0B0F58D
:10259000000F08D0B0F5400F05D04FF42171AFF215
:1025A000604000F001FE01E06BE083E04FF08071DD
:1025B00091FAA1F1B1FA81F1C24648F821B0FEF7D3
:1025C00049FEBB4680464FF0007705E0FEF742FE2D
:1025D000A0EB0800642854D897FAA7F0B0FA80F06E
:1025E00040F02000400903D0DBF8000001E063E088
:1025F000306897FAA7F1B1FA81F101F01F0105FAED
:1026000001F10842E2D1D4E90A10226BD9F8003076
:10261000014323F47D031A431143C9F800104FF01E
:10262000807003E0043802400070004090FAA0F08F
:10263000B0FA80F04AF82050FEF70CFE044604E0A1
:10264000FEF708FE001B64281BD897FAA7F0B0FA23
:1026500080F040F02000400902D0DBF8000000E0EC
:10266000306897FAA7F1B1FA81F101F01F0105FA7C
:1026700001F10842E4D01DE0FEF7ECFD001B6428E8
:1026800002D90320BDE8F88F97FAA7F0B0FA80F0DE
:1026900040F02000400902D0D8F8000000E0306887
:1026A00097FAA7F1B1FA81F101F01F0105FA01F1E2
:1026B0000842E1D10020E5E70120E3E770B504001E
:1026C0007FD05A492068884206D05949884203D0B1
:1026D000572158A000F068FD606830B1B0F5827FE6
:1026E00003D0582153A000F05FFDA06848B1B0F5B9
:1026F000806F06D0B0F5004F03D059214DA000F0F7
:1027000053FDE068B0F5006F04D018B15A2149A01C
:1027100000F04AFD206928B1022803D05B2145A0C2
:1027200000F042FD606928B1012803D05C2141A07E
:1027300000F03AFDA069B0F5007F07D030B1B0F5E8
:10274000802F03D05D213BA000F02EFDE06988B111
:1027500008280FD010280DD018280BD0202809D019
:10276000282807D0302805D0382803D05E2131A092
:1027700000F01AFD206A28B1802803D05F212DA027
:1027800000F012FD606A18B160212AA000F00CFD73
:10279000A06A30B1B0F5005F03D0612125A000F040
:1027A00003FDE06A4FF6FE71401E884203D96221A4
:1027B00020A000F0F9FC94F85100002518B107E0C2
:1027C000FFE7012070BD84F85050204600F050F81B
:1027D000022084F851002068016821F04001016066
:1027E000D4E901010843D4E90312114308436169A4
:1027F0000843218B01F400710843E1690843216A11
:102800000843A16A084321680860A069042101EA1D
:102810001040616A0843216848602168E06A0861E5
:102820006565012084F85100002070BD0030014032
:10283000003800402E2E2F447269766572732F5334
:10284000544D33324C3178785F48414C5F44726963
:102850007665722F5372632F73746D33326C3178D7
:10286000785F68616C5F7370695F65782E630000E4
:1028700000B500680E4987B0884216D10D4801683E
:1028800041F4805101600068694600F48050059071
:10289000E02000900220019000200290032003908D
:1028A000052004900448FEF743FB07B000BD00007C
:1028B00000300140203802400000024010B54FF0C7
:1028C000E024042809D020B14FF4DF7105A000F006
:1028D0006BFC206920F0040002E0206940F0040055
:1028E000206110BD2E2E2F447269766572732F53AE
:1028F000544D33324C3178785F48414C5F447269B3
:102900007665722F5372632F73746D33326C317826
:10291000785F68616C5F636F727465782E63000026
:10292000704710B5401EB0F1807F01D3012010BD6B
:102930004FF0E02460610F21601700F0A5F900203E
:10294000A06107202061002010BD10B5FFF7E8FF4F
:1029500010BD000070B5040020D0A06934490028E3
:10296000344A354B20681BD088420AD0904208D0A8
:10297000984206D04FF4817130A000F015FCA06998
:10298000C8B1A069B0F5807F15D0B0F5007F12D036
:10299000B0F5407F0FD040F2031109E0012070BD77
:1029A000884208D0904206D0984204D040F20711E5
:1029B00022A000F0F9FBA06838B1B0F5805F04D028
:1029C00040F209111DA000F0EFFBE06938B1B0F54D
:1029D000004F04D04FF4857118A000F0E5FB94F887
:1029E0003900002520B984F83850204600F044F81A
:1029F000022084F839002068C16821F40051C160C8
:102A0000204600F009FA2068016921F49041016133
:102A10002068416921F02A0141612068C16841F4C0
:102A20000051C160E563012084F83900002070BDC9
:102A30000038014000440040004800402E2E2F4442
:102A40007269766572732F53544D33324C317878F6
:102A50005F48414C5F4472697665722F5372632FF1
:102A600073746D33326C3178785F68616C5F756157
:102A700072742E630000000070B5154E01680222CA
:102A8000012303240725134886B0B1420AD1124915
:102A90000E6846F480460E60096801F48041059195
:102AA00061020DE00D4EB1420FD10B49091D0E68B8
:102AB00046F400360E60096801F4003105910C21DE
:102AC0008DE83E006946FEF733FA06B070BD00009F
:102AD000003801400000024020380240004400401D
:102AE0003EB512481049002402C04FF48031E0E89E
:102AF0000214891110C00125E0E80441102140F8BA
:102B0000084C40F8044CE0E80245E0E8035480E853
:102B100032000648FDF730FD0095CDE901546946C5
:102B20000248FDF7BFFB3EBD002401400C00002021
:102B3000054808B5016841F080710160006800F047
:102B40008070009008BD00001C38024030B51E485F
:102B500087B0016841F004010160016801F00401DF
:102B60000591016841F020010160016801F0200138
:102B70000591016841F001010160016801F0010166
:102B80000591016841F0020101600068002500F034
:102B9000020005900124CDE9004569460B480295E5
:102BA000FEF7C6F90220CDE90004CDE90245084C44
:102BB00069462046FEF7BCF9002202212046FEF7B6
:102BC00013FB07B030BD00001C380240000002407B
:102BD00000040240094808494FF480420160084956
:102BE000416000218160C0E9031241618161C161DE
:102BF0000162FEF735BB0000005400409800002041
:102C0000A08601000B480A494FF4007201604FF49E
:102C10008271416000218160C1600161C0E90512DB
:102C2000C1610162416281620A21C162FFF746BD52
:102C300000300140540100200848074901604FF46A
:102C4000E1314160002181600C22C160C0E90412C1
:102C50008161C161FFF77EBE00380140D4000020D1
:102C60000848074901604FF4E1314160002181606B
:102C70000C22C160C0E904128161C161FFF76ABE24
:102C800000440040140100200907090E002806DA5C
:102C900000F00F0000F1E02080F8141D704700F1F3
:102CA000E02080F800147047F8B507461A4800265F
:102CB00000681A4D10F0F00F20D1174C1C3420681A
:102CC000C00002D5FEF7E0FC0DE0206840F0805027
:102CD0002060206800F080500090FEF7D5FC21684D
:102CE00021F080512160B0F5C05F07D1B7F5404FAA
:102CF00004D12868012640F004002860286820F0EC
:102D0000010030432860286800F00100B04201D083
:102D10000120F8BD0020F8BD08380240003C024008
:102D200010B5FEF7DDFBBDE81040FFF70EBE00005A
:102D3000234810B5016896B041F0805101600068E9
:102D400000F0805014901F48016821F4C05141F4F4
:102D5000006101600B200124CDE900041020CDE9C1
:102D60000340022009900594C0030A9000010B90D3
:102D7000C0000C906846FEF7F5FF0320CDE90D403A
:102D800000200F901090119001210DA8FEF758FD22
:102D90006004CDE9124012A8FEF77EFCFEF754FF56
:102DA0004FF47A71B0FBF1F0FFF7BBFD0420FFF7A1
:102DB00085FD00221146501EFEF7D6FB16B010BD51
:102DC00024380240007000400F48016841F48071CF
:102DD00001600D4908310A680C4B1A400A6002680C
:102DE0000B4B1A400260026822F4802202600868DD
:102DF00020F47D0008600020091D086005494FF09F
:102E00000060086070470000003802400CC0FF8876
:102E1000FEFFFEEE08ED00E02DE9F04104464068BB
:102E20006B49884204D340F23F716AA000F0BCF9BC
:102E3000E06838B1B0F5005F04D04FF4E86165A0F8
:102E400000F0B2F9206950B1B0F5806F07D0B0F54D
:102E5000C06F04D040F241715EA000F0A5F9606936
:102E600030F00C0100D120B940F2427159A000F0BD
:102E70009BF920680169E26821F440511143016126
:102E80002169A068E2690843616911430843216828
:102E9000CA6849F20C639A430243CA6020684169D8
:102EA000A26921F4407111434161E1696425322630
:102EB000B1F5004F564821681BD0814267D1FEF71B
:102EC000F3FE00EBC00101EB00106168A846890029
:102ED000B0FBF1F1B1FBF8F5FEF7E6FE00EBC00147
:102EE00001EB001061688900B0FBF1F7FEF7DCFE32
:102EF00066E0814219D1FEF7D7FE00EBC00101EB7D
:102F000000106168A8464900B0FBF1F1B1FBF8F58B
:102F1000FEF7CAFE00EBC00101EB0010616849003A
:102F2000B0FBF1F7FEF7C0FE18E0FEF7A7FE00EBDE
:102F3000C00101EB00106168A8464900B0FBF1F147
:102F4000B1FBF8F5FEF79AFE00EBC00101EB0010B3
:102F500061684900B0FBF1F7FEF790FE00EBC0019D
:102F600001EB001061684900B0FBF1F1B1FBF8F032
:102F70006FF01801484307EB800006EB0011B1FB2E
:102F8000F8F0216865F31F108860BDE8F081FEF756
:102F900075FE00EBC00101EB00106168A8468900D6
:102FA000B0FBF1F1B1FBF8F5FEF768FE00EBC001F4
:102FB00001EB001061688900B0FBF1F7FEF75EFEDF
:102FC00000EBC00101EB001061688900CCE7000054
:102FD00001093D002E2E2F447269766572732F53BE
:102FE000544D33324C3178785F48414C5F447269BC
:102FF0007665722F5372632F73746D33326C317830
:10300000785F68616C5F756172742E630000000008
:10301000003801400FB4054B10B503A9044A0298CB
:1030200000F018F810BC5DF814FB0000AB3100088C
:103030000800002002E008C8121F08C1002AFAD1C7
:1030400070477047002001E001C1121F002AFBD128
:10305000704700002DE9FF4F89B09B4604460025CC
:1030600006E025280BD05A460B999047641C6D1C2E
:1030700020780028F5D10DB02846BDE8F08F002754
:10308000B8460122474900E0074314F8013F203BBE
:1030900002FA03F00842F7D120782E2819D114F84B
:1030A000010F47F004072A280ED06FF02F02207876
:1030B000A0F1300109290CD808EB880102EB41018D
:1030C00000EB0108641CF2E70A98641C50F8048BBA
:1030D0000A9020780028CED0642808D0692806D02D
:1030E00075281ED05A460B9990476D1C58E00A99D6
:1030F0004FF00A0901C90A91002802DA40422D2145
:1031000002E0390504D52B218DF82010012103E0C0
:10311000F90704D02021F7E78A4608AE0DE0002128
:10312000FAE70A994FF00A0901C90A91F7E74946F7
:10313000FCF7FCFF303106F8011D0028F7D1ADEB9C
:10314000060000F12009780701D44FF00108C845B6
:1031500002DDA8EB090000E000208046002706E021
:1031600008A85A46C05D0B9990476D1C7F1C5745B7
:10317000F6DB04E030205A460B9990476D1CB8F1FD
:103180000001A8F10108F5DC05E016F8010B5A462C
:103190000B9990476D1CB9F10001A9F10109F4DC0C
:1031A000641C65E709280100704738B504468DF8AE
:1031B000000069460320ABBE204638BDFEF798F9F3
:1031C000FFF7B6FDFFF7C2FCFFF7B2FCFFF788FC84
:1031D000FFF700FDFFF716FDFFF72EFDFFF740FD9F
:1031E0000A220D490D48FDF7CBFB0B4D6420FDF77E
:1031F00093FE0BA0FFF70EFF5FF0000435F81410EC
:1032000009A0FFF707FF641CE4B20A2CF6D308A05C
:10321000FFF700FFEAE70000AC0100200C000020EF
:103220006164633A0000000025642C09000000007E
:103230000D0A000001020304000000000102030463
:103240000102030406070809030406080C101820ED
:103250003000000074320008000000200C00000064
:1032600034300008803200080C000020B403000055
:1032700044300008000000000048E80100000000A1
:04000005080000F5FA
:00000001FF
