:020000040800F2
:10000000E0020020E916000805170008091700089B
:100010000D17000811170008151700080000000050
:100020000000000000000000000000001917000898
:100030001D170008000000002117000885160008A1
:1000400025170008291700082D1700083117000888
:100050003517000839170008931600083D170008E7
:100060004117000845170008491700084D170008F8
:100070005117000855170008591700085D170008A8
:100080006117000865170008691700086D17000858
:100090007117000875170008791700087D17000808
:1000A0000000000081170008851700088917000864
:1000B0008D17000891170008951700089917000878
:1000C0009D170008A1170008A5170008A917000828
:1000D000AD17000899160008B1170008B5170008F9
:1000E000B9170008BD170008C1170008C517000898
:1000F000C9170008F8B50446DFF8D8572078C007BC
:1001000070D5A86800F00C00082807D0A86800F097
:100110000C000C280CD1A868C00309D52868C0F3CE
:10012000404000285ED0606800285BD10120F2BD0D
:10013000286820F480302860286820F48020286017
:1001400000F00EFC06462868C0F34040002805D0A9
:1001500000F006FC801B6528F5D3ECE160680128FF
:1001600004D1286840F4803028601CE0002808D1C1
:10017000286820F480302860286820F480202860D7
:1001800011E00528286807D140F4802028602868FD
:1001900040F48030286006E020F480302860286831
:1001A00020F480202860606800280DD000F0D8FB83
:1001B00006462868C0F34040002813D100F0D0FB69
:1001C000801B6528F5D3B6E100F0CAFB0646286817
:1001D000C0F34040002805D000F0C2FB801B65281A
:1001E000F5D3A8E1207880071BD5A86800F00C00A3
:1001F000042807D0A86800F00C000C283AD1A868A1
:10020000C00337D42868C0F34000002802D0E0685B
:1002100001288BD1686820F4F850216940EA012058
:1002200068602078C00667D5A86810F00C0F7BD1F5
:100230002868C0F34020002803D0A06900283FF4BC
:1002400075AF206A696801F4604181423FD200F0D5
:1002500006FB00287FF46AAF686820F46040216ADA
:100260000843686068680002000AE16940EA0160CA
:1002700068603EE0DFF86076E068002817D0012073
:10028000386000F06DFB06462868C0F34000002887
:1002900005D100F065FB801B6528F5D34BE168684C
:1002A00020F4F850216940EA01206860B9E7002095
:1002B000386000F055FB06462868C0F3400000286F
:1002C000AFD000F04DFB801B6528F5D333E16968A2
:1002D00021F460410843686068680002000AE1692F
:1002E00040EA01606860206A00F0B9FA00287FF4F3
:1002F0001DAF002000F01DFB2078000757D5DFF868
:10030000DC056169002942D00121016000F028FB71
:100310000646686BC0F34000002848D100F020FB7F
:10032000801B6528F5D306E1DFF8AC75A0690028CD
:100330001DD00120386200F013FB06462868C0F388
:100340004020002805D100F00BFB801B6528F5D369
:10035000F1E0686820F46040216A084368606868DA
:100360000002000AE16940EA01606860C4E7002019
:10037000386200F0F5FA06462868C0F340200028ED
:10038000BAD000F0EDFA801B6528F5D3D3E0002148
:10039000016000F0E5FA0646686BC0F340000028F3
:1003A00005D000F0DDFA801B6528F5D3C3E0207886
:1003B00040077AD5686A40F080506862686A00F049
:1003C000805000900098DFF81875386840F480700D
:1003D000386000F0C5FA06463868C00505D400F05C
:1003E000BFFA801B6528F7D3A5E0686B20F4807006
:1003F0006863686B20F48060686300F0B1FA0646B9
:10040000686BC0F34020002807D000F0A9FA801BD9
:1004100041F289318842F3D38DE0A068012804D1EC
:10042000686B40F4807068631CE0002808D1686B3A
:1004300020F480706863686B20F48060686311E06A
:100440000528686B07D140F480606863686B40F4EE
:100450008070686306E020F480706863686B20F445
:1004600080606863A06800280FD000F079FA064623
:10047000686BC0F34020002817D100F071FA801B90
:1004800041F289318842F3D355E000F069FA06461B
:10049000686BC0F34020002807D000F061FA801B91
:1004A00041F289318842F3D345E0606A002844D0A4
:1004B000A96801F00C010C293FF438AEDFF818747C
:1004C000022829D10020386600F04AFA064628683A
:1004D000C0F34060002805D000F042FA801B652878
:1004E000F5D328E0A86820F47D00A16A0843E16AFA
:1004F0000843216B0843A8600120386600F030FAF9
:1005000006462868C0F34060002816D100F028FA9B
:10051000801B6528F5D30EE00020386600F020FA35
:1005200006462868C0F34060002806D000F018FA9C
:10053000801B6528F5D30320F2BD0020F2BD2DE914
:10054000F04104460E46DFF89C73386800F0010065
:10055000B04280F08880012E03D1386840F004005A
:1005600038603868400856EA40003860386800F063
:100570000100B04240F0FB80DFF85853207880073C
:1005800005D5A86820F0F000A1680843A86020788D
:10059000C00740F1EE806068022805D12968C1F3E8
:1005A0004041002915D1E2E0032805D12968C1F3B3
:1005B000406100290DD1DAE00128296804D1C1F396
:1005C0004001002905D1D2E0C1F34021002900F00B
:1005D000CE80A968890850EA8100A86000F0C0F9BF
:1005E0008046606802280ED1A86800F00C00082838
:1005F00000F0BF8000F0B4F9A0EB080041F28931AF
:100600008842F1D3A1E003280ED1A86800F00C00C5
:100610000C2800F0AE8000F0A3F9A0EB080041F236
:1006200089318842F1D390E001280ED1A86800F00A
:100630000C00042800F09D8000F092F9A0EB080067
:1006400041F289318842F1D37FE0A86810F00C0FA5
:1006500000F08F8000F084F9A0EB080041F28931AE
:100660008842F2D371E02078800707D5DFF8645222
:10067000A86820F0F000A1680843A8602078C007AF
:1006800065D56068DFF84C52022805D12968C1F3AE
:100690004041002914D16AE0032805D12968C1F33B
:1006A000406100290CD162E00128296804D1C1F31E
:1006B0004001002904D15AE0C1F34021002956D05D
:1006C000A968890850EA8100A86000F049F98046CD
:1006D000606802280DD1A86800F00C00082836D008
:1006E00000F03EF9A0EB080041F289318842F2D3D4
:1006F0002BE003280DD1A86800F00C000C2826D0B0
:1007000000F02EF9A0EB080041F289318842F2D3C3
:100710001BE001280DD1A86800F00C00042816D0B9
:1007200000F01EF9A0EB080041F289318842F2D3B3
:100730000BE0A86810F00C0F09D000F011F9A0EB45
:10074000080041F289318842F3D303202AE0012EC8
:1007500003D1386840F0040038603868400856EA31
:1007600040003860386800F00100B04201D001203C
:1007700018E02078400706D5564DA86820F4E060C0
:10078000E1680843A8602078000707D5514DA868A4
:1007900020F46050216940EAC100A860002000F008
:1007A000C8F80020BDE8F0815048416801F00C0213
:1007B000042A04D0082A04D00C2A04D01AE04C4899
:1007C00070474C4870470FF24812C1F383439A5C5C
:1007D0000FF23813C1F38151C95C4068C00304D5DE
:1007E00044485043B0FBF1F0704741485043B0FBE0
:1007F000F1F070470068C0F342300121401C01FA5B
:1008000000F0C003704780B5FFF7CEFF3A490FF202
:10081000EC02354B1B68C3F303139A5C0346D340C9
:100820000B60086802BD80B5FFF7EDFF01460FF2CF
:10083000CC002D4A1268C2F30222125C0846D04056
:1008400002BD80B5FFF7DFFF01460FF2B000264A78
:100850001268C2F3C222125C0846D04002BD70B5D5
:1008600082B005460024204E306810F0F00F1BD1F6
:10087000F069C00002D500F085F80EE0F06940F0A4
:100880008050F061F06900F080500090009800F016
:1008900079F8F16921F08051F161B0F5C05F03D1C1
:1008A000B5F5404F00D101240E48012C03D1016859
:1008B00041F0040101600168490854EA4101016006
:1008C000006800F00100A04201D0012076BD0020A8
:1008D00076BD0000003802400000474280064742D3
:1008E00000700040003C02400838024004380240DA
:1008F0000024F40000127A00000000200000000034
:1009000001020304010203040607080901020304AB
:10091000030406080C1018203000000080B50320E6
:1009200000F08FF8002000F004F800F0BBF8002081
:1009300002BD10B50446FFF766FF4FF47A71B0FBB5
:10094000F1F000F08FF8002221464FF0FF3000F068
:1009500079F8002010BD0A480168491C0160704701
:1009600007480068704711B581B0FFF7F9FF0446EA
:10097000FFF7F6FF001B01998842F9D313BD000071
:10098000D80000200248006800F4C0507047000002
:10099000007000403A490A684FF6FF031A4000F021
:1009A000070042EA0020374A104308607047344885
:1009B0000068C0F302207047012100F01F0291403F
:1009C000314A400942F8201070470901002806D535
:1009D0002E4A00F00F00801800F8041C70472C4AC3
:1009E0008154704710B400F00700C0F10703052BD5
:1009F00000D30423041D072C01D2002000E0C01EF8
:100A0000012404FA03F35B1E1940814004FA00F04C
:100A1000401E1040084310BC704710B5401EB0F196
:100A2000807F01D3012010BD1A4C60600F214FF070
:100A3000FF30FFF7CAFF0020A060072020600020E1
:100A400010BDA7E770B504460D461646FFF7AFFF89
:100A500032462946FFF7C6FF01462046BDE87040F2
:100A6000B3E7A9E7D9E70B490428086803D140F0A8
:100A700004000860704720F0040008607047000020
:100A80000CED00E00000FA0500E100E018ED00E0E8
:100A900000E400E010E000E080B500F001F801BDE6
:100AA0007047000080B50F48416841F00041416047
:100AB000416801F0004100910099016841F0010195
:100AC0000160006800F00100009000980320FFF72B
:100AD000B8FF002211464FF0FF30BDE80840FFF795
:100AE000B1BF00BF2038024038B5050001D1012058
:100AF00032BD05F138046078002804D10020207050
:100B0000284600F018FA022060702868C16821F4B5
:100B10000051C160284600F02CF92868016921F4D1
:100B2000904101612868416921F02A0141612868EA
:100B3000C16841F40051C160002060600120607014
:100B4000002032BD10B582B004462068016801F073
:100B50000101C06800F48070002905D0002803D08E
:100B6000E06B40F00100E06320680168490801F093
:100B70000101406900F00100002905D0002803D0E0
:100B8000E16B41F00401E16321680968890811F013
:100B9000010105D0002803D0E16B41F00201E163BF
:100BA00021680968C90811F0010105D0002803D0A7
:100BB000E06B40F00800E06320680168490901F03B
:100BC0000101C06800F02000002904D0002802D0F4
:100BD000204600F079F820680168C90901F0010198
:100BE000C06800F08000002904D0002802D0204610
:100BF00000F022F820680168890901F00101C0684D
:100C000000F04000002904D0002802D0204600F067
:100C100046F8E06B00280BD020680168009140681E
:100C200000900098012084F83900204600F003F875
:100C300013BD70477047704790F83910122901D0E2
:100C400032292AD1016A8268B2F5805F0ED1098803
:100C5000C905C90D02685160016A0269002A02D102
:100C6000891C016207E0491C016204E04A1C02621F
:100C7000097802685160C18C491EC18489B200297B
:100C800009D10168CA6822F08002CA600068C168A0
:100C900041F04001C160002070470220704780B5DC
:100CA0000168CA6822F04002CA6090F839103229FF
:100CB00003D1222180F8391002E0012180F8391097
:100CC000FFF7B7FF002002BD80B590F83910222948
:100CD00001D032294BD10269816A8368B3F5805F04
:100CE00010D10368002A5A6806D1D205D20D0A80B5
:100CF000816A891C816214E0D2B20A80816A491C2F
:100D000081620EE0002A05D14A1C826202685268A4
:100D10000A7006E04A1C82620268526802F07F0292
:100D20000A70C18D491EC18589B200291DD1016893
:100D3000CA6822F02002CA6090F83910322903D123
:100D4000122180F839100CE00168CA6822F4807220
:100D5000CA6001684A69520852004A61012180F85C
:100D60003910FFF767FF002002BD002002BD0220FE
:100D700002BD2DE9F04104462068016921F440518B
:100D8000E268114301612068C168604A1140A268AD
:100D900011432269114362691143E2691143C16041
:100DA0002068416921F44071A269114341612068C2
:100DB000642519265649E269B2F5004F51D188429F
:100DC00027D1FFF73EFD8046FFF73BFD0746FFF7C3
:100DD00038FD61684A0006FB08F1B1FBF2F12B46D1
:100DE000B1FBF3F106FB07F3B3FBF2F37043B0FB87
:100DF000F2F02A46B0FBF2F005FB10300001323071
:100E0000B0FBF2F000F00F0040EA011021688860AA
:100E100078E0FFF708FD8046FFF705FD0746FFF77E
:100E200002FD61684A0006FB08F1B1FBF2F12B46B6
:100E3000B1FBF3F106FB07F3B3FBF2F37043B0FB36
:100E4000F2F02A46B0FBF2F005FB10300001323020
:100E5000B0FBF2F000F00F0040EA0110216888605A
:100E600050E0884227D1FFF7ECFC8046FFF7E9FC11
:100E70000746FFF7E6FC61688A0006FB08F1B1FB54
:100E8000F2F12B46B1FBF3F106FB07F3B3FBF2F3F0
:100E90007043B0FBF2F02A46B0FBF2F005FB1030D5
:100EA00000013230B0FBF2F000F00F0040EA011018
:100EB0002168886026E0FFF7B6FC8046FFF7B3FCA8
:100EC0000746FFF7B0FC61688A0006FB08F1B1FB3A
:100ED000F2F12B46B1FBF3F106FB07F3B3FBF2F3A0
:100EE0007043B0FBF2F02A46B0FBF2F005FB103085
:100EF00000013230B0FBF2F000F00F0040EA0110C8
:100F000021688860BDE8F08100000000F369FFFF00
:100F1000003801401D481E4901604FF4E131416035
:100F200000218160C16001610C214161002181616A
:100F3000C161FFF7D9BD00681549884200D07047EC
:100F400000B587B01348016841F480410160006832
:100F500000F48040009000984FF4C060019002209F
:100F6000029001200390032004900720059001A91E
:100F7000094800F013F8002201212520FFF762FD47
:100F80002520FFF76EFD07B000BD00005C000020CB
:100F9000003801402038024000000240F8B400222E
:100FA00025E04FF0050C0CFA06F63E4345F82460A8
:100FB000634C2668DD432E404F68FF0300D51E4377
:100FC000266066682E404F68BF0300D51E436660EA
:100FD000A6682E404F68FF0200D51E43A660E66853
:100FE00035404E68B60200D51D43E560521C0B68C3
:100FF0001C46D44000F08B80012494402340F5D05F
:101000004D68022D01D0122D12D1D50800EB8506B6
:10101000356A02F00707BF004FF00F0C0CFA07FC0F
:1010200025EA0C05D1F810C00CFA07F73D433562EC
:10103000056856000327B740FF433D4091F804C0C0
:101040000CF0030C0CFA06FC4CEA050505604D6833
:10105000012D05D0022D03D0112D01D0122D11D15B
:1010600085683D40D1F80CC00CFA06FC4CEA050539
:101070008560456825EA04044D68C5F30015954070
:101080002C434460C56807EA05048D68B5402C43CD
:10109000C4604C68E400A9D52A4C256845F00105D8
:1010A0002560246804F001040094009C9408264DF7
:1010B00055F8247002F00306B6004FF00F0C0CFA3E
:1010C00006FC27EA0C07DFF884C0604502D14FF028
:1010D000000C68E7DFF878C0604502D14FF0010CE2
:1010E00061E7DFF870C0604502D14FF0020C5AE7AB
:1010F000DFF864C0604502D14FF0030C53E7DFF81E
:101100005CC060457FF44DAF4FF0040C4BE7F1BC81
:101110007047002A01D081617047090481617047DE
:10112000426951404161704701460D4A13680B42C4
:1011300000D1704780B5116000F014F801BD0000C7
:101140000004014020380240080001400000024035
:101150000004024000080240000C0240001002405F
:101160001404014070470000F8B504000FD004F1EA
:1011700034056878002804D100202870204600F04B
:10118000A5F8FFF750FBDFF80C11884201D20120CF
:10119000F2BD0221697021680A68520852000A6093
:1011A000DFF8F410B0FBF1F321684A68920953EAC2
:1011B00082124A602268166ADFF8E01067688F4280
:1011C00001D25B1C07E04FF496777B434FF47A77AC
:1011D000B3FBF7F35B1CB60953EA8613136222686C
:1011E000D36966688E4208D27100B0FBF1F0010548
:1011F000090D042922D2042020E0A168002904D18D
:1012000006EB4607B0FBF7F705E019277743B0FB7D
:10121000F7F747F480473F0501D101200EE0002990
:1012200004D106EB4601B0FBF1F005E01921714352
:10123000B0FBF1F040F4804040F40040DFF8601073
:1012400019400843D0612068016821F0C001E269BB
:101250001143226A1143016020688168DFF844204D
:10126000114022691143E268114381602068C1681E
:10127000090AA26963691A4352EA0121C160206820
:10128000016841F001010160002068600120687080
:101290000020F2BD80841E0040420F00A1860100A4
:1012A0000030FFFF007CFFFF19481A4901601A490E
:1012B000416000218160C1604FF4804101610021E3
:1012C00041618161C1610162FFF74EBF0068114950
:1012D000884200D0704700B587B0C020019012202E
:1012E000029001200390032004900420059001A99E
:1012F0000A48FFF753FE0A48016841F400110160F3
:10130000006800F400100090009807B000BD0000D5
:101310009C00002000540040A08601000004024010
:101320002438024080B5FFF7F9FA00F011F800F018
:1013300059F8FFF7B9FF00F0A9F8FFF7EBFD4FF4FC
:10134000FA70FFF710FB02212348FFF7E9FEF6E7EA
:1013500000B593B02148016841F0805101600068F8
:1013600000F08050009000981D48016821F4C051A1
:1013700041F40061016001200690079002200F9067
:101380004FF4803010904FF4402011904FF48000C3
:10139000129006A8FEF7AEFE0F20019003200290E7
:1013A0000020039004900590012101A8FFF7C7F8E1
:1013B000FFF729FA4FF47A71B0FBF1F0FFF752FB17
:1013C0000420FFF750FB002211464FF0FF30FFF7DB
:1013D00039FB13B000BD0000000402402438024075
:1013E0000070004010B586B02448016841F0040147
:1013F0000160016801F0040100910099016841F069
:1014000020010160016801F020010091009901684C
:1014100041F001010160016801F0010100910099B2
:10142000016841F002010160006800F002000090D4
:10143000009801200190124802900220039001A917
:101440001048FFF7ABFD02200190012002900390AD
:10145000002004900C4C01A92046FFF79FFD0022BC
:1014600002212046FFF755FE002202210620FFF749
:10147000E9FA0620FFF7F5FA06B010BD1C38024065
:101480000000111000000240000402401B481C49EB
:1014900001604FF48271416000218160C16001618F
:1014A00041614FF4007181610021C16101624162BB
:1014B00081620A21C16200F029B80068104988429F
:1014C00000D0704700B587B00E48016841F48051E4
:1014D0000160006800F4805000900098E0200190C6
:1014E0000220029000200390032004900520059024
:1014F00001A90548FFF752FD07B000BD0400002018
:1015000000300140203802400000024038B504009D
:1015100001D1012032BD04F150056878002804D1C2
:10152000002028702046FFF7C8FF0220687020685E
:10153000016821F0400101606068A1680843E1682A
:1015400008432169084361690843A16901F40071F6
:101550000843E1690843216A0843A16A08432168F6
:101560000860A069000C00F00400616A084321686B
:101570004860E06A216808610020686001206870A6
:10158000002032BD0D48016841F48071016081681E
:101590000B4A1140816001680A4A114001600168EC
:1015A00021F480210160816821F47D0181600021A6
:1015B000C1604FF000600449086070470038024085
:1015C0000CC0FF88FEFFFEEE08ED00E019E050F8C9
:1015D000041BCB0744BFA9F101035918121F0023B4
:1015E000042A41F8043BF9D25FEA827C0B4604D519
:1015F0004FF0000CA1F800C09B1CD10744BF002194
:10160000197050F8042B002AE1D1704710B450F83B
:10161000041B79B10268436812180830DC0744BF24
:10162000A9F10104E31852F8044B43F8044B091FD5
:10163000F9D1ECE710BC704710B50749794418316F
:10164000064C7C44163404E00A68081D511888478B
:101650000146A142F8D110BD08000000280000009A
:101660006DFFFFFFD8000000040000200000000014
:101670009DFFFFFF04000000540100000000002057
:101680000000000080B5FFF766F9BDE80140FFF7F4
:1016900003BA0120FFF748BD0148FFF753BA000025
:1016A0005C00002000F00BF8002801D0FFF7C4FF19
:1016B0000020C046C046FFF735FE00F002F80120CA
:1016C000704700F001B800000746384600F002F805
:1016D000FBE7000080B5C046C046024A1100182052
:1016E000ABBEFBE7260002000148804701480047E7
:1016F00085150008F9160008C046C046C046C04619
:10170000FFF7D0FFFFF7FEBFFFF7FEBFFFF7FEBFFB
:10171000FFF7FEBFFFF7FEBFFFF7FEBFFFF7FEBFFD
:10172000FFF7FEBFFFF7FEBFFFF7FEBFFFF7FEBFED
:10173000FFF7FEBFFFF7FEBFFFF7FEBFFFF7FEBFDD
:10174000FFF7FEBFFFF7FEBFFFF7FEBFFFF7FEBFCD
:10175000FFF7FEBFFFF7FEBFFFF7FEBFFFF7FEBFBD
:10176000FFF7FEBFFFF7FEBFFFF7FEBFFFF7FEBFAD
:10177000FFF7FEBFFFF7FEBFFFF7FEBFFFF7FEBF9D
:10178000FFF7FEBFFFF7FEBFFFF7FEBFFFF7FEBF8D
:10179000FFF7FEBFFFF7FEBFFFF7FEBFFFF7FEBF7D
:1017A000FFF7FEBFFFF7FEBFFFF7FEBFFFF7FEBF6D
:1017B000FFF7FEBFFFF7FEBFFFF7FEBFFFF7FEBF5D
:1017C000FFF7FEBFFFF7FEBFFFF7FEBF0048E801CF
:04000005080016F9E0
:00000001FF
